{
	"contracts/UserData.sol": {
		"UserData": {
			"abi": [
				{
					"inputs": [],
					"name": "age",
					"outputs": [
						{
							"internalType": "uint8",
							"name": "",
							"type": "uint8"
						}
					],
					"stateMutability": "view",
					"type": "function"
				},
				{
					"inputs": [
						{
							"internalType": "string",
							"name": "_name",
							"type": "string"
						},
						{
							"internalType": "string",
							"name": "_place",
							"type": "string"
						},
						{
							"internalType": "uint8",
							"name": "_age",
							"type": "uint8"
						}
					],
					"name": "getData",
					"outputs": [],
					"stateMutability": "nonpayable",
					"type": "function"
				},
				{
					"inputs": [],
					"name": "name",
					"outputs": [
						{
							"internalType": "string",
							"name": "",
							"type": "string"
						}
					],
					"stateMutability": "view",
					"type": "function"
				},
				{
					"inputs": [],
					"name": "place",
					"outputs": [
						{
							"internalType": "string",
							"name": "",
							"type": "string"
						}
					],
					"stateMutability": "view",
					"type": "function"
				}
			],
			"devdoc": {
				"kind": "dev",
				"methods": {},
				"version": 1
			},
			"evm": {
				"assembly": "    /* \"contracts/UserData.sol\":57:311  contract UserData {... */\n  mstore(0x40, 0x80)\n  callvalue\n  dup1\n  iszero\n  tag_1\n  jumpi\n  0x00\n  dup1\n  revert\ntag_1:\n  pop\n  dataSize(sub_0)\n  dup1\n  dataOffset(sub_0)\n  0x00\n  codecopy\n  0x00\n  return\nstop\n\nsub_0: assembly {\n        /* \"contracts/UserData.sol\":57:311  contract UserData {... */\n      mstore(0x40, 0x80)\n      callvalue\n      dup1\n      iszero\n      tag_1\n      jumpi\n      0x00\n      dup1\n      revert\n    tag_1:\n      pop\n      jumpi(tag_2, lt(calldatasize, 0x04))\n      shr(0xe0, calldataload(0x00))\n      dup1\n      0x06fdde03\n      eq\n      tag_3\n      jumpi\n      dup1\n      0x262a9dff\n      eq\n      tag_4\n      jumpi\n      dup1\n      0x8ee30763\n      eq\n      tag_5\n      jumpi\n      dup1\n      0x93cca918\n      eq\n      tag_6\n      jumpi\n    tag_2:\n      0x00\n      dup1\n      revert\n        /* \"contracts/UserData.sol\":81:99  string public name */\n    tag_3:\n      tag_7\n      tag_8\n      jump\t// in\n    tag_7:\n      mload(0x40)\n      tag_9\n      swap2\n      swap1\n      tag_10\n      jump\t// in\n    tag_9:\n      mload(0x40)\n      dup1\n      swap2\n      sub\n      swap1\n      return\n        /* \"contracts/UserData.sol\":131:147  uint8 public age */\n    tag_4:\n      tag_11\n      tag_12\n      jump\t// in\n    tag_11:\n      mload(0x40)\n      tag_13\n      swap2\n      swap1\n      tag_14\n      jump\t// in\n    tag_13:\n      mload(0x40)\n      dup1\n      swap2\n      sub\n      swap1\n      return\n        /* \"contracts/UserData.sol\":154:309  function getData(string memory  _name, string memory _place, uint8 _age ) public  {... */\n    tag_5:\n      tag_15\n      0x04\n      dup1\n      calldatasize\n      sub\n      dup2\n      add\n      swap1\n      tag_16\n      swap2\n      swap1\n      tag_17\n      jump\t// in\n    tag_16:\n      tag_18\n      jump\t// in\n    tag_15:\n      stop\n        /* \"contracts/UserData.sol\":105:125  string public  place */\n    tag_6:\n      tag_19\n      tag_20\n      jump\t// in\n    tag_19:\n      mload(0x40)\n      tag_21\n      swap2\n      swap1\n      tag_10\n      jump\t// in\n    tag_21:\n      mload(0x40)\n      dup1\n      swap2\n      sub\n      swap1\n      return\n        /* \"contracts/UserData.sol\":81:99  string public name */\n    tag_8:\n      0x00\n      dup1\n      sload\n      tag_22\n      swap1\n      tag_23\n      jump\t// in\n    tag_22:\n      dup1\n      0x1f\n      add\n      0x20\n      dup1\n      swap2\n      div\n      mul\n      0x20\n      add\n      mload(0x40)\n      swap1\n      dup2\n      add\n      0x40\n      mstore\n      dup1\n      swap3\n      swap2\n      swap1\n      dup2\n      dup2\n      mstore\n      0x20\n      add\n      dup3\n      dup1\n      sload\n      tag_24\n      swap1\n      tag_23\n      jump\t// in\n    tag_24:\n      dup1\n      iszero\n      tag_25\n      jumpi\n      dup1\n      0x1f\n      lt\n      tag_26\n      jumpi\n      0x0100\n      dup1\n      dup4\n      sload\n      div\n      mul\n      dup4\n      mstore\n      swap2\n      0x20\n      add\n      swap2\n      jump(tag_25)\n    tag_26:\n      dup3\n      add\n      swap2\n      swap1\n      0x00\n      mstore\n      keccak256(0x00, 0x20)\n      swap1\n    tag_27:\n      dup2\n      sload\n      dup2\n      mstore\n      swap1\n      0x01\n      add\n      swap1\n      0x20\n      add\n      dup1\n      dup4\n      gt\n      tag_27\n      jumpi\n      dup3\n      swap1\n      sub\n      0x1f\n      and\n      dup3\n      add\n      swap2\n    tag_25:\n      pop\n      pop\n      pop\n      pop\n      pop\n      dup2\n      jump\t// out\n        /* \"contracts/UserData.sol\":131:147  uint8 public age */\n    tag_12:\n      0x02\n      0x00\n      swap1\n      sload\n      swap1\n      0x0100\n      exp\n      swap1\n      div\n      0xff\n      and\n      dup2\n      jump\t// out\n        /* \"contracts/UserData.sol\":154:309  function getData(string memory  _name, string memory _place, uint8 _age ) public  {... */\n    tag_18:\n        /* \"contracts/UserData.sol\":253:258  _name */\n      dup3\n        /* \"contracts/UserData.sol\":246:250  name */\n      0x00\n        /* \"contracts/UserData.sol\":246:258  name = _name */\n      swap1\n      dup2\n      tag_29\n      swap2\n      swap1\n      tag_30\n      jump\t// in\n    tag_29:\n      pop\n        /* \"contracts/UserData.sol\":276:282  _place */\n      dup2\n        /* \"contracts/UserData.sol\":268:273  place */\n      0x01\n        /* \"contracts/UserData.sol\":268:282  place = _place */\n      swap1\n      dup2\n      tag_31\n      swap2\n      swap1\n      tag_30\n      jump\t// in\n    tag_31:\n      pop\n        /* \"contracts/UserData.sol\":298:302  _age */\n      dup1\n        /* \"contracts/UserData.sol\":292:295  age */\n      0x02\n      0x00\n        /* \"contracts/UserData.sol\":292:302  age = _age */\n      0x0100\n      exp\n      dup2\n      sload\n      dup2\n      0xff\n      mul\n      not\n      and\n      swap1\n      dup4\n      0xff\n      and\n      mul\n      or\n      swap1\n      sstore\n      pop\n        /* \"contracts/UserData.sol\":154:309  function getData(string memory  _name, string memory _place, uint8 _age ) public  {... */\n      pop\n      pop\n      pop\n      jump\t// out\n        /* \"contracts/UserData.sol\":105:125  string public  place */\n    tag_20:\n      0x01\n      dup1\n      sload\n      tag_32\n      swap1\n      tag_23\n      jump\t// in\n    tag_32:\n      dup1\n      0x1f\n      add\n      0x20\n      dup1\n      swap2\n      div\n      mul\n      0x20\n      add\n      mload(0x40)\n      swap1\n      dup2\n      add\n      0x40\n      mstore\n      dup1\n      swap3\n      swap2\n      swap1\n      dup2\n      dup2\n      mstore\n      0x20\n      add\n      dup3\n      dup1\n      sload\n      tag_33\n      swap1\n      tag_23\n      jump\t// in\n    tag_33:\n      dup1\n      iszero\n      tag_34\n      jumpi\n      dup1\n      0x1f\n      lt\n      tag_35\n      jumpi\n      0x0100\n      dup1\n      dup4\n      sload\n      div\n      mul\n      dup4\n      mstore\n      swap2\n      0x20\n      add\n      swap2\n      jump(tag_34)\n    tag_35:\n      dup3\n      add\n      swap2\n      swap1\n      0x00\n      mstore\n      keccak256(0x00, 0x20)\n      swap1\n    tag_36:\n      dup2\n      sload\n      dup2\n      mstore\n      swap1\n      0x01\n      add\n      swap1\n      0x20\n      add\n      dup1\n      dup4\n      gt\n      tag_36\n      jumpi\n      dup3\n      swap1\n      sub\n      0x1f\n      and\n      dup3\n      add\n      swap2\n    tag_34:\n      pop\n      pop\n      pop\n      pop\n      pop\n      dup2\n      jump\t// out\n        /* \"#utility.yul\":7:106   */\n    tag_37:\n        /* \"#utility.yul\":59:65   */\n      0x00\n        /* \"#utility.yul\":93:98   */\n      dup2\n        /* \"#utility.yul\":87:99   */\n      mload\n        /* \"#utility.yul\":77:99   */\n      swap1\n      pop\n        /* \"#utility.yul\":7:106   */\n      swap2\n      swap1\n      pop\n      jump\t// out\n        /* \"#utility.yul\":112:281   */\n    tag_38:\n        /* \"#utility.yul\":196:207   */\n      0x00\n        /* \"#utility.yul\":230:236   */\n      dup3\n        /* \"#utility.yul\":225:228   */\n      dup3\n        /* \"#utility.yul\":218:237   */\n      mstore\n        /* \"#utility.yul\":270:274   */\n      0x20\n        /* \"#utility.yul\":265:268   */\n      dup3\n        /* \"#utility.yul\":261:275   */\n      add\n        /* \"#utility.yul\":246:275   */\n      swap1\n      pop\n        /* \"#utility.yul\":112:281   */\n      swap3\n      swap2\n      pop\n      pop\n      jump\t// out\n        /* \"#utility.yul\":287:533   */\n    tag_39:\n        /* \"#utility.yul\":368:369   */\n      0x00\n        /* \"#utility.yul\":378:491   */\n    tag_79:\n        /* \"#utility.yul\":392:398   */\n      dup4\n        /* \"#utility.yul\":389:390   */\n      dup2\n        /* \"#utility.yul\":386:399   */\n      lt\n        /* \"#utility.yul\":378:491   */\n      iszero\n      tag_81\n      jumpi\n        /* \"#utility.yul\":477:478   */\n      dup1\n        /* \"#utility.yul\":472:475   */\n      dup3\n        /* \"#utility.yul\":468:479   */\n      add\n        /* \"#utility.yul\":462:480   */\n      mload\n        /* \"#utility.yul\":458:459   */\n      dup2\n        /* \"#utility.yul\":453:456   */\n      dup5\n        /* \"#utility.yul\":449:460   */\n      add\n        /* \"#utility.yul\":442:481   */\n      mstore\n        /* \"#utility.yul\":414:416   */\n      0x20\n        /* \"#utility.yul\":411:412   */\n      dup2\n        /* \"#utility.yul\":407:417   */\n      add\n        /* \"#utility.yul\":402:417   */\n      swap1\n      pop\n        /* \"#utility.yul\":378:491   */\n      jump(tag_79)\n    tag_81:\n        /* \"#utility.yul\":525:526   */\n      0x00\n        /* \"#utility.yul\":516:522   */\n      dup5\n        /* \"#utility.yul\":511:514   */\n      dup5\n        /* \"#utility.yul\":507:523   */\n      add\n        /* \"#utility.yul\":500:527   */\n      mstore\n        /* \"#utility.yul\":349:533   */\n      pop\n        /* \"#utility.yul\":287:533   */\n      pop\n      pop\n      pop\n      jump\t// out\n        /* \"#utility.yul\":539:641   */\n    tag_40:\n        /* \"#utility.yul\":580:586   */\n      0x00\n        /* \"#utility.yul\":631:633   */\n      0x1f\n        /* \"#utility.yul\":627:634   */\n      not\n        /* \"#utility.yul\":622:624   */\n      0x1f\n        /* \"#utility.yul\":615:620   */\n      dup4\n        /* \"#utility.yul\":611:625   */\n      add\n        /* \"#utility.yul\":607:635   */\n      and\n        /* \"#utility.yul\":597:635   */\n      swap1\n      pop\n        /* \"#utility.yul\":539:641   */\n      swap2\n      swap1\n      pop\n      jump\t// out\n        /* \"#utility.yul\":647:1024   */\n    tag_41:\n        /* \"#utility.yul\":735:738   */\n      0x00\n        /* \"#utility.yul\":763:802   */\n      tag_84\n        /* \"#utility.yul\":796:801   */\n      dup3\n        /* \"#utility.yul\":763:802   */\n      tag_37\n      jump\t// in\n    tag_84:\n        /* \"#utility.yul\":818:889   */\n      tag_85\n        /* \"#utility.yul\":882:888   */\n      dup2\n        /* \"#utility.yul\":877:880   */\n      dup6\n        /* \"#utility.yul\":818:889   */\n      tag_38\n      jump\t// in\n    tag_85:\n        /* \"#utility.yul\":811:889   */\n      swap4\n      pop\n        /* \"#utility.yul\":898:963   */\n      tag_86\n        /* \"#utility.yul\":956:962   */\n      dup2\n        /* \"#utility.yul\":951:954   */\n      dup6\n        /* \"#utility.yul\":944:948   */\n      0x20\n        /* \"#utility.yul\":937:942   */\n      dup7\n        /* \"#utility.yul\":933:949   */\n      add\n        /* \"#utility.yul\":898:963   */\n      tag_39\n      jump\t// in\n    tag_86:\n        /* \"#utility.yul\":988:1017   */\n      tag_87\n        /* \"#utility.yul\":1010:1016   */\n      dup2\n        /* \"#utility.yul\":988:1017   */\n      tag_40\n      jump\t// in\n    tag_87:\n        /* \"#utility.yul\":983:986   */\n      dup5\n        /* \"#utility.yul\":979:1018   */\n      add\n        /* \"#utility.yul\":972:1018   */\n      swap2\n      pop\n        /* \"#utility.yul\":739:1024   */\n      pop\n        /* \"#utility.yul\":647:1024   */\n      swap3\n      swap2\n      pop\n      pop\n      jump\t// out\n        /* \"#utility.yul\":1030:1343   */\n    tag_10:\n        /* \"#utility.yul\":1143:1147   */\n      0x00\n        /* \"#utility.yul\":1181:1183   */\n      0x20\n        /* \"#utility.yul\":1170:1179   */\n      dup3\n        /* \"#utility.yul\":1166:1184   */\n      add\n        /* \"#utility.yul\":1158:1184   */\n      swap1\n      pop\n        /* \"#utility.yul\":1230:1239   */\n      dup2\n        /* \"#utility.yul\":1224:1228   */\n      dup2\n        /* \"#utility.yul\":1220:1240   */\n      sub\n        /* \"#utility.yul\":1216:1217   */\n      0x00\n        /* \"#utility.yul\":1205:1214   */\n      dup4\n        /* \"#utility.yul\":1201:1218   */\n      add\n        /* \"#utility.yul\":1194:1241   */\n      mstore\n        /* \"#utility.yul\":1258:1336   */\n      tag_89\n        /* \"#utility.yul\":1331:1335   */\n      dup2\n        /* \"#utility.yul\":1322:1328   */\n      dup5\n        /* \"#utility.yul\":1258:1336   */\n      tag_41\n      jump\t// in\n    tag_89:\n        /* \"#utility.yul\":1250:1336   */\n      swap1\n      pop\n        /* \"#utility.yul\":1030:1343   */\n      swap3\n      swap2\n      pop\n      pop\n      jump\t// out\n        /* \"#utility.yul\":1349:1435   */\n    tag_42:\n        /* \"#utility.yul\":1384:1391   */\n      0x00\n        /* \"#utility.yul\":1424:1428   */\n      0xff\n        /* \"#utility.yul\":1417:1422   */\n      dup3\n        /* \"#utility.yul\":1413:1429   */\n      and\n        /* \"#utility.yul\":1402:1429   */\n      swap1\n      pop\n        /* \"#utility.yul\":1349:1435   */\n      swap2\n      swap1\n      pop\n      jump\t// out\n        /* \"#utility.yul\":1441:1553   */\n    tag_43:\n        /* \"#utility.yul\":1524:1546   */\n      tag_92\n        /* \"#utility.yul\":1540:1545   */\n      dup2\n        /* \"#utility.yul\":1524:1546   */\n      tag_42\n      jump\t// in\n    tag_92:\n        /* \"#utility.yul\":1519:1522   */\n      dup3\n        /* \"#utility.yul\":1512:1547   */\n      mstore\n        /* \"#utility.yul\":1441:1553   */\n      pop\n      pop\n      jump\t// out\n        /* \"#utility.yul\":1559:1773   */\n    tag_14:\n        /* \"#utility.yul\":1648:1652   */\n      0x00\n        /* \"#utility.yul\":1686:1688   */\n      0x20\n        /* \"#utility.yul\":1675:1684   */\n      dup3\n        /* \"#utility.yul\":1671:1689   */\n      add\n        /* \"#utility.yul\":1663:1689   */\n      swap1\n      pop\n        /* \"#utility.yul\":1699:1766   */\n      tag_94\n        /* \"#utility.yul\":1763:1764   */\n      0x00\n        /* \"#utility.yul\":1752:1761   */\n      dup4\n        /* \"#utility.yul\":1748:1765   */\n      add\n        /* \"#utility.yul\":1739:1745   */\n      dup5\n        /* \"#utility.yul\":1699:1766   */\n      tag_43\n      jump\t// in\n    tag_94:\n        /* \"#utility.yul\":1559:1773   */\n      swap3\n      swap2\n      pop\n      pop\n      jump\t// out\n        /* \"#utility.yul\":1779:1854   */\n    tag_44:\n        /* \"#utility.yul\":1812:1818   */\n      0x00\n        /* \"#utility.yul\":1845:1847   */\n      0x40\n        /* \"#utility.yul\":1839:1848   */\n      mload\n        /* \"#utility.yul\":1829:1848   */\n      swap1\n      pop\n        /* \"#utility.yul\":1779:1854   */\n      swap1\n      jump\t// out\n        /* \"#utility.yul\":1860:1977   */\n    tag_45:\n        /* \"#utility.yul\":1969:1970   */\n      0x00\n        /* \"#utility.yul\":1966:1967   */\n      dup1\n        /* \"#utility.yul\":1959:1971   */\n      revert\n        /* \"#utility.yul\":1983:2100   */\n    tag_46:\n        /* \"#utility.yul\":2092:2093   */\n      0x00\n        /* \"#utility.yul\":2089:2090   */\n      dup1\n        /* \"#utility.yul\":2082:2094   */\n      revert\n        /* \"#utility.yul\":2106:2223   */\n    tag_47:\n        /* \"#utility.yul\":2215:2216   */\n      0x00\n        /* \"#utility.yul\":2212:2213   */\n      dup1\n        /* \"#utility.yul\":2205:2217   */\n      revert\n        /* \"#utility.yul\":2229:2346   */\n    tag_48:\n        /* \"#utility.yul\":2338:2339   */\n      0x00\n        /* \"#utility.yul\":2335:2336   */\n      dup1\n        /* \"#utility.yul\":2328:2340   */\n      revert\n        /* \"#utility.yul\":2352:2532   */\n    tag_49:\n        /* \"#utility.yul\":2400:2477   */\n      0x4e487b7100000000000000000000000000000000000000000000000000000000\n        /* \"#utility.yul\":2397:2398   */\n      0x00\n        /* \"#utility.yul\":2390:2478   */\n      mstore\n        /* \"#utility.yul\":2497:2501   */\n      0x41\n        /* \"#utility.yul\":2494:2495   */\n      0x04\n        /* \"#utility.yul\":2487:2502   */\n      mstore\n        /* \"#utility.yul\":2521:2525   */\n      0x24\n        /* \"#utility.yul\":2518:2519   */\n      0x00\n        /* \"#utility.yul\":2511:2526   */\n      revert\n        /* \"#utility.yul\":2538:2819   */\n    tag_50:\n        /* \"#utility.yul\":2621:2648   */\n      tag_102\n        /* \"#utility.yul\":2643:2647   */\n      dup3\n        /* \"#utility.yul\":2621:2648   */\n      tag_40\n      jump\t// in\n    tag_102:\n        /* \"#utility.yul\":2613:2619   */\n      dup2\n        /* \"#utility.yul\":2609:2649   */\n      add\n        /* \"#utility.yul\":2751:2757   */\n      dup2\n        /* \"#utility.yul\":2739:2749   */\n      dup2\n        /* \"#utility.yul\":2736:2758   */\n      lt\n        /* \"#utility.yul\":2715:2733   */\n      0xffffffffffffffff\n        /* \"#utility.yul\":2703:2713   */\n      dup3\n        /* \"#utility.yul\":2700:2734   */\n      gt\n        /* \"#utility.yul\":2697:2759   */\n      or\n        /* \"#utility.yul\":2694:2782   */\n      iszero\n      tag_103\n      jumpi\n        /* \"#utility.yul\":2762:2780   */\n      tag_104\n      tag_49\n      jump\t// in\n    tag_104:\n        /* \"#utility.yul\":2694:2782   */\n    tag_103:\n        /* \"#utility.yul\":2802:2812   */\n      dup1\n        /* \"#utility.yul\":2798:2800   */\n      0x40\n        /* \"#utility.yul\":2791:2813   */\n      mstore\n        /* \"#utility.yul\":2581:2819   */\n      pop\n        /* \"#utility.yul\":2538:2819   */\n      pop\n      pop\n      jump\t// out\n        /* \"#utility.yul\":2825:2954   */\n    tag_51:\n        /* \"#utility.yul\":2859:2865   */\n      0x00\n        /* \"#utility.yul\":2886:2906   */\n      tag_106\n      tag_44\n      jump\t// in\n    tag_106:\n        /* \"#utility.yul\":2876:2906   */\n      swap1\n      pop\n        /* \"#utility.yul\":2915:2948   */\n      tag_107\n        /* \"#utility.yul\":2943:2947   */\n      dup3\n        /* \"#utility.yul\":2935:2941   */\n      dup3\n        /* \"#utility.yul\":2915:2948   */\n      tag_50\n      jump\t// in\n    tag_107:\n        /* \"#utility.yul\":2825:2954   */\n      swap2\n      swap1\n      pop\n      jump\t// out\n        /* \"#utility.yul\":2960:3268   */\n    tag_52:\n        /* \"#utility.yul\":3022:3026   */\n      0x00\n        /* \"#utility.yul\":3112:3130   */\n      0xffffffffffffffff\n        /* \"#utility.yul\":3104:3110   */\n      dup3\n        /* \"#utility.yul\":3101:3131   */\n      gt\n        /* \"#utility.yul\":3098:3154   */\n      iszero\n      tag_109\n      jumpi\n        /* \"#utility.yul\":3134:3152   */\n      tag_110\n      tag_49\n      jump\t// in\n    tag_110:\n        /* \"#utility.yul\":3098:3154   */\n    tag_109:\n        /* \"#utility.yul\":3172:3201   */\n      tag_111\n        /* \"#utility.yul\":3194:3200   */\n      dup3\n        /* \"#utility.yul\":3172:3201   */\n      tag_40\n      jump\t// in\n    tag_111:\n        /* \"#utility.yul\":3164:3201   */\n      swap1\n      pop\n        /* \"#utility.yul\":3256:3260   */\n      0x20\n        /* \"#utility.yul\":3250:3254   */\n      dup2\n        /* \"#utility.yul\":3246:3261   */\n      add\n        /* \"#utility.yul\":3238:3261   */\n      swap1\n      pop\n        /* \"#utility.yul\":2960:3268   */\n      swap2\n      swap1\n      pop\n      jump\t// out\n        /* \"#utility.yul\":3274:3420   */\n    tag_53:\n        /* \"#utility.yul\":3371:3377   */\n      dup3\n        /* \"#utility.yul\":3366:3369   */\n      dup2\n        /* \"#utility.yul\":3361:3364   */\n      dup4\n        /* \"#utility.yul\":3348:3378   */\n      calldatacopy\n        /* \"#utility.yul\":3412:3413   */\n      0x00\n        /* \"#utility.yul\":3403:3409   */\n      dup4\n        /* \"#utility.yul\":3398:3401   */\n      dup4\n        /* \"#utility.yul\":3394:3410   */\n      add\n        /* \"#utility.yul\":3387:3414   */\n      mstore\n        /* \"#utility.yul\":3274:3420   */\n      pop\n      pop\n      pop\n      jump\t// out\n        /* \"#utility.yul\":3426:3851   */\n    tag_54:\n        /* \"#utility.yul\":3504:3509   */\n      0x00\n        /* \"#utility.yul\":3529:3595   */\n      tag_114\n        /* \"#utility.yul\":3545:3594   */\n      tag_115\n        /* \"#utility.yul\":3587:3593   */\n      dup5\n        /* \"#utility.yul\":3545:3594   */\n      tag_52\n      jump\t// in\n    tag_115:\n        /* \"#utility.yul\":3529:3595   */\n      tag_51\n      jump\t// in\n    tag_114:\n        /* \"#utility.yul\":3520:3595   */\n      swap1\n      pop\n        /* \"#utility.yul\":3618:3624   */\n      dup3\n        /* \"#utility.yul\":3611:3616   */\n      dup2\n        /* \"#utility.yul\":3604:3625   */\n      mstore\n        /* \"#utility.yul\":3656:3660   */\n      0x20\n        /* \"#utility.yul\":3649:3654   */\n      dup2\n        /* \"#utility.yul\":3645:3661   */\n      add\n        /* \"#utility.yul\":3694:3697   */\n      dup5\n        /* \"#utility.yul\":3685:3691   */\n      dup5\n        /* \"#utility.yul\":3680:3683   */\n      dup5\n        /* \"#utility.yul\":3676:3692   */\n      add\n        /* \"#utility.yul\":3673:3698   */\n      gt\n        /* \"#utility.yul\":3670:3782   */\n      iszero\n      tag_116\n      jumpi\n        /* \"#utility.yul\":3701:3780   */\n      tag_117\n      tag_48\n      jump\t// in\n    tag_117:\n        /* \"#utility.yul\":3670:3782   */\n    tag_116:\n        /* \"#utility.yul\":3791:3845   */\n      tag_118\n        /* \"#utility.yul\":3838:3844   */\n      dup5\n        /* \"#utility.yul\":3833:3836   */\n      dup3\n        /* \"#utility.yul\":3828:3831   */\n      dup6\n        /* \"#utility.yul\":3791:3845   */\n      tag_53\n      jump\t// in\n    tag_118:\n        /* \"#utility.yul\":3510:3851   */\n      pop\n        /* \"#utility.yul\":3426:3851   */\n      swap4\n      swap3\n      pop\n      pop\n      pop\n      jump\t// out\n        /* \"#utility.yul\":3871:4211   */\n    tag_55:\n        /* \"#utility.yul\":3927:3932   */\n      0x00\n        /* \"#utility.yul\":3976:3979   */\n      dup3\n        /* \"#utility.yul\":3969:3973   */\n      0x1f\n        /* \"#utility.yul\":3961:3967   */\n      dup4\n        /* \"#utility.yul\":3957:3974   */\n      add\n        /* \"#utility.yul\":3953:3980   */\n      slt\n        /* \"#utility.yul\":3943:4065   */\n      tag_120\n      jumpi\n        /* \"#utility.yul\":3984:4063   */\n      tag_121\n      tag_47\n      jump\t// in\n    tag_121:\n        /* \"#utility.yul\":3943:4065   */\n    tag_120:\n        /* \"#utility.yul\":4101:4107   */\n      dup2\n        /* \"#utility.yul\":4088:4108   */\n      calldataload\n        /* \"#utility.yul\":4126:4205   */\n      tag_122\n        /* \"#utility.yul\":4201:4204   */\n      dup5\n        /* \"#utility.yul\":4193:4199   */\n      dup3\n        /* \"#utility.yul\":4186:4190   */\n      0x20\n        /* \"#utility.yul\":4178:4184   */\n      dup7\n        /* \"#utility.yul\":4174:4191   */\n      add\n        /* \"#utility.yul\":4126:4205   */\n      tag_54\n      jump\t// in\n    tag_122:\n        /* \"#utility.yul\":4117:4205   */\n      swap2\n      pop\n        /* \"#utility.yul\":3933:4211   */\n      pop\n        /* \"#utility.yul\":3871:4211   */\n      swap3\n      swap2\n      pop\n      pop\n      jump\t// out\n        /* \"#utility.yul\":4217:4335   */\n    tag_56:\n        /* \"#utility.yul\":4288:4310   */\n      tag_124\n        /* \"#utility.yul\":4304:4309   */\n      dup2\n        /* \"#utility.yul\":4288:4310   */\n      tag_42\n      jump\t// in\n    tag_124:\n        /* \"#utility.yul\":4281:4286   */\n      dup2\n        /* \"#utility.yul\":4278:4311   */\n      eq\n        /* \"#utility.yul\":4268:4329   */\n      tag_125\n      jumpi\n        /* \"#utility.yul\":4325:4326   */\n      0x00\n        /* \"#utility.yul\":4322:4323   */\n      dup1\n        /* \"#utility.yul\":4315:4327   */\n      revert\n        /* \"#utility.yul\":4268:4329   */\n    tag_125:\n        /* \"#utility.yul\":4217:4335   */\n      pop\n      jump\t// out\n        /* \"#utility.yul\":4341:4476   */\n    tag_57:\n        /* \"#utility.yul\":4385:4390   */\n      0x00\n        /* \"#utility.yul\":4423:4429   */\n      dup2\n        /* \"#utility.yul\":4410:4430   */\n      calldataload\n        /* \"#utility.yul\":4401:4430   */\n      swap1\n      pop\n        /* \"#utility.yul\":4439:4470   */\n      tag_127\n        /* \"#utility.yul\":4464:4469   */\n      dup2\n        /* \"#utility.yul\":4439:4470   */\n      tag_56\n      jump\t// in\n    tag_127:\n        /* \"#utility.yul\":4341:4476   */\n      swap3\n      swap2\n      pop\n      pop\n      jump\t// out\n        /* \"#utility.yul\":4482:5457   */\n    tag_17:\n        /* \"#utility.yul\":4577:4583   */\n      0x00\n        /* \"#utility.yul\":4585:4591   */\n      dup1\n        /* \"#utility.yul\":4593:4599   */\n      0x00\n        /* \"#utility.yul\":4642:4644   */\n      0x60\n        /* \"#utility.yul\":4630:4639   */\n      dup5\n        /* \"#utility.yul\":4621:4628   */\n      dup7\n        /* \"#utility.yul\":4617:4640   */\n      sub\n        /* \"#utility.yul\":4613:4645   */\n      slt\n        /* \"#utility.yul\":4610:4729   */\n      iszero\n      tag_129\n      jumpi\n        /* \"#utility.yul\":4648:4727   */\n      tag_130\n      tag_45\n      jump\t// in\n    tag_130:\n        /* \"#utility.yul\":4610:4729   */\n    tag_129:\n        /* \"#utility.yul\":4796:4797   */\n      0x00\n        /* \"#utility.yul\":4785:4794   */\n      dup5\n        /* \"#utility.yul\":4781:4798   */\n      add\n        /* \"#utility.yul\":4768:4799   */\n      calldataload\n        /* \"#utility.yul\":4826:4844   */\n      0xffffffffffffffff\n        /* \"#utility.yul\":4818:4824   */\n      dup2\n        /* \"#utility.yul\":4815:4845   */\n      gt\n        /* \"#utility.yul\":4812:4929   */\n      iszero\n      tag_131\n      jumpi\n        /* \"#utility.yul\":4848:4927   */\n      tag_132\n      tag_46\n      jump\t// in\n    tag_132:\n        /* \"#utility.yul\":4812:4929   */\n    tag_131:\n        /* \"#utility.yul\":4953:5016   */\n      tag_133\n        /* \"#utility.yul\":5008:5015   */\n      dup7\n        /* \"#utility.yul\":4999:5005   */\n      dup3\n        /* \"#utility.yul\":4988:4997   */\n      dup8\n        /* \"#utility.yul\":4984:5006   */\n      add\n        /* \"#utility.yul\":4953:5016   */\n      tag_55\n      jump\t// in\n    tag_133:\n        /* \"#utility.yul\":4943:5016   */\n      swap4\n      pop\n        /* \"#utility.yul\":4739:5026   */\n      pop\n        /* \"#utility.yul\":5093:5095   */\n      0x20\n        /* \"#utility.yul\":5082:5091   */\n      dup5\n        /* \"#utility.yul\":5078:5096   */\n      add\n        /* \"#utility.yul\":5065:5097   */\n      calldataload\n        /* \"#utility.yul\":5124:5142   */\n      0xffffffffffffffff\n        /* \"#utility.yul\":5116:5122   */\n      dup2\n        /* \"#utility.yul\":5113:5143   */\n      gt\n        /* \"#utility.yul\":5110:5227   */\n      iszero\n      tag_134\n      jumpi\n        /* \"#utility.yul\":5146:5225   */\n      tag_135\n      tag_46\n      jump\t// in\n    tag_135:\n        /* \"#utility.yul\":5110:5227   */\n    tag_134:\n        /* \"#utility.yul\":5251:5314   */\n      tag_136\n        /* \"#utility.yul\":5306:5313   */\n      dup7\n        /* \"#utility.yul\":5297:5303   */\n      dup3\n        /* \"#utility.yul\":5286:5295   */\n      dup8\n        /* \"#utility.yul\":5282:5304   */\n      add\n        /* \"#utility.yul\":5251:5314   */\n      tag_55\n      jump\t// in\n    tag_136:\n        /* \"#utility.yul\":5241:5314   */\n      swap3\n      pop\n        /* \"#utility.yul\":5036:5324   */\n      pop\n        /* \"#utility.yul\":5363:5365   */\n      0x40\n        /* \"#utility.yul\":5389:5440   */\n      tag_137\n        /* \"#utility.yul\":5432:5439   */\n      dup7\n        /* \"#utility.yul\":5423:5429   */\n      dup3\n        /* \"#utility.yul\":5412:5421   */\n      dup8\n        /* \"#utility.yul\":5408:5430   */\n      add\n        /* \"#utility.yul\":5389:5440   */\n      tag_57\n      jump\t// in\n    tag_137:\n        /* \"#utility.yul\":5379:5440   */\n      swap2\n      pop\n        /* \"#utility.yul\":5334:5450   */\n      pop\n        /* \"#utility.yul\":4482:5457   */\n      swap3\n      pop\n      swap3\n      pop\n      swap3\n      jump\t// out\n        /* \"#utility.yul\":5463:5643   */\n    tag_58:\n        /* \"#utility.yul\":5511:5588   */\n      0x4e487b7100000000000000000000000000000000000000000000000000000000\n        /* \"#utility.yul\":5508:5509   */\n      0x00\n        /* \"#utility.yul\":5501:5589   */\n      mstore\n        /* \"#utility.yul\":5608:5612   */\n      0x22\n        /* \"#utility.yul\":5605:5606   */\n      0x04\n        /* \"#utility.yul\":5598:5613   */\n      mstore\n        /* \"#utility.yul\":5632:5636   */\n      0x24\n        /* \"#utility.yul\":5629:5630   */\n      0x00\n        /* \"#utility.yul\":5622:5637   */\n      revert\n        /* \"#utility.yul\":5649:5969   */\n    tag_23:\n        /* \"#utility.yul\":5693:5699   */\n      0x00\n        /* \"#utility.yul\":5730:5731   */\n      0x02\n        /* \"#utility.yul\":5724:5728   */\n      dup3\n        /* \"#utility.yul\":5720:5732   */\n      div\n        /* \"#utility.yul\":5710:5732   */\n      swap1\n      pop\n        /* \"#utility.yul\":5777:5778   */\n      0x01\n        /* \"#utility.yul\":5771:5775   */\n      dup3\n        /* \"#utility.yul\":5767:5779   */\n      and\n        /* \"#utility.yul\":5798:5816   */\n      dup1\n        /* \"#utility.yul\":5788:5869   */\n      tag_140\n      jumpi\n        /* \"#utility.yul\":5854:5858   */\n      0x7f\n        /* \"#utility.yul\":5846:5852   */\n      dup3\n        /* \"#utility.yul\":5842:5859   */\n      and\n        /* \"#utility.yul\":5832:5859   */\n      swap2\n      pop\n        /* \"#utility.yul\":5788:5869   */\n    tag_140:\n        /* \"#utility.yul\":5916:5918   */\n      0x20\n        /* \"#utility.yul\":5908:5914   */\n      dup3\n        /* \"#utility.yul\":5905:5919   */\n      lt\n        /* \"#utility.yul\":5885:5903   */\n      dup2\n        /* \"#utility.yul\":5882:5920   */\n      sub\n        /* \"#utility.yul\":5879:5963   */\n      tag_141\n      jumpi\n        /* \"#utility.yul\":5935:5953   */\n      tag_142\n      tag_58\n      jump\t// in\n    tag_142:\n        /* \"#utility.yul\":5879:5963   */\n    tag_141:\n        /* \"#utility.yul\":5700:5969   */\n      pop\n        /* \"#utility.yul\":5649:5969   */\n      swap2\n      swap1\n      pop\n      jump\t// out\n        /* \"#utility.yul\":5975:6116   */\n    tag_59:\n        /* \"#utility.yul\":6024:6028   */\n      0x00\n        /* \"#utility.yul\":6047:6050   */\n      dup2\n        /* \"#utility.yul\":6039:6050   */\n      swap1\n      pop\n        /* \"#utility.yul\":6070:6073   */\n      dup2\n        /* \"#utility.yul\":6067:6068   */\n      0x00\n        /* \"#utility.yul\":6060:6074   */\n      mstore\n        /* \"#utility.yul\":6104:6108   */\n      0x20\n        /* \"#utility.yul\":6101:6102   */\n      0x00\n        /* \"#utility.yul\":6091:6109   */\n      keccak256\n        /* \"#utility.yul\":6083:6109   */\n      swap1\n      pop\n        /* \"#utility.yul\":5975:6116   */\n      swap2\n      swap1\n      pop\n      jump\t// out\n        /* \"#utility.yul\":6122:6215   */\n    tag_60:\n        /* \"#utility.yul\":6159:6165   */\n      0x00\n        /* \"#utility.yul\":6206:6208   */\n      0x20\n        /* \"#utility.yul\":6201:6203   */\n      0x1f\n        /* \"#utility.yul\":6194:6199   */\n      dup4\n        /* \"#utility.yul\":6190:6204   */\n      add\n        /* \"#utility.yul\":6186:6209   */\n      div\n        /* \"#utility.yul\":6176:6209   */\n      swap1\n      pop\n        /* \"#utility.yul\":6122:6215   */\n      swap2\n      swap1\n      pop\n      jump\t// out\n        /* \"#utility.yul\":6221:6328   */\n    tag_61:\n        /* \"#utility.yul\":6265:6273   */\n      0x00\n        /* \"#utility.yul\":6315:6320   */\n      dup3\n        /* \"#utility.yul\":6309:6313   */\n      dup3\n        /* \"#utility.yul\":6305:6321   */\n      shl\n        /* \"#utility.yul\":6284:6321   */\n      swap1\n      pop\n        /* \"#utility.yul\":6221:6328   */\n      swap3\n      swap2\n      pop\n      pop\n      jump\t// out\n        /* \"#utility.yul\":6334:6727   */\n    tag_62:\n        /* \"#utility.yul\":6403:6409   */\n      0x00\n        /* \"#utility.yul\":6453:6454   */\n      0x08\n        /* \"#utility.yul\":6441:6451   */\n      dup4\n        /* \"#utility.yul\":6437:6455   */\n      mul\n        /* \"#utility.yul\":6476:6573   */\n      tag_147\n        /* \"#utility.yul\":6506:6572   */\n      0xffffffffffffffffffffffffffffffffffffffffffffffffffffffffffffffff\n        /* \"#utility.yul\":6495:6504   */\n      dup3\n        /* \"#utility.yul\":6476:6573   */\n      tag_61\n      jump\t// in\n    tag_147:\n        /* \"#utility.yul\":6594:6633   */\n      tag_148\n        /* \"#utility.yul\":6624:6632   */\n      dup7\n        /* \"#utility.yul\":6613:6622   */\n      dup4\n        /* \"#utility.yul\":6594:6633   */\n      tag_61\n      jump\t// in\n    tag_148:\n        /* \"#utility.yul\":6582:6633   */\n      swap6\n      pop\n        /* \"#utility.yul\":6666:6670   */\n      dup1\n        /* \"#utility.yul\":6662:6671   */\n      not\n        /* \"#utility.yul\":6655:6660   */\n      dup5\n        /* \"#utility.yul\":6651:6672   */\n      and\n        /* \"#utility.yul\":6642:6672   */\n      swap4\n      pop\n        /* \"#utility.yul\":6715:6719   */\n      dup1\n        /* \"#utility.yul\":6705:6713   */\n      dup7\n        /* \"#utility.yul\":6701:6720   */\n      and\n        /* \"#utility.yul\":6694:6699   */\n      dup5\n        /* \"#utility.yul\":6691:6721   */\n      or\n        /* \"#utility.yul\":6681:6721   */\n      swap3\n      pop\n        /* \"#utility.yul\":6410:6727   */\n      pop\n      pop\n        /* \"#utility.yul\":6334:6727   */\n      swap4\n      swap3\n      pop\n      pop\n      pop\n      jump\t// out\n        /* \"#utility.yul\":6733:6810   */\n    tag_63:\n        /* \"#utility.yul\":6770:6777   */\n      0x00\n        /* \"#utility.yul\":6799:6804   */\n      dup2\n        /* \"#utility.yul\":6788:6804   */\n      swap1\n      pop\n        /* \"#utility.yul\":6733:6810   */\n      swap2\n      swap1\n      pop\n      jump\t// out\n        /* \"#utility.yul\":6816:6876   */\n    tag_64:\n        /* \"#utility.yul\":6844:6847   */\n      0x00\n        /* \"#utility.yul\":6865:6870   */\n      dup2\n        /* \"#utility.yul\":6858:6870   */\n      swap1\n      pop\n        /* \"#utility.yul\":6816:6876   */\n      swap2\n      swap1\n      pop\n      jump\t// out\n        /* \"#utility.yul\":6882:7024   */\n    tag_65:\n        /* \"#utility.yul\":6932:6941   */\n      0x00\n        /* \"#utility.yul\":6965:7018   */\n      tag_152\n        /* \"#utility.yul\":6983:7017   */\n      tag_153\n        /* \"#utility.yul\":6992:7016   */\n      tag_154\n        /* \"#utility.yul\":7010:7015   */\n      dup5\n        /* \"#utility.yul\":6992:7016   */\n      tag_63\n      jump\t// in\n    tag_154:\n        /* \"#utility.yul\":6983:7017   */\n      tag_64\n      jump\t// in\n    tag_153:\n        /* \"#utility.yul\":6965:7018   */\n      tag_63\n      jump\t// in\n    tag_152:\n        /* \"#utility.yul\":6952:7018   */\n      swap1\n      pop\n        /* \"#utility.yul\":6882:7024   */\n      swap2\n      swap1\n      pop\n      jump\t// out\n        /* \"#utility.yul\":7030:7105   */\n    tag_66:\n        /* \"#utility.yul\":7073:7076   */\n      0x00\n        /* \"#utility.yul\":7094:7099   */\n      dup2\n        /* \"#utility.yul\":7087:7099   */\n      swap1\n      pop\n        /* \"#utility.yul\":7030:7105   */\n      swap2\n      swap1\n      pop\n      jump\t// out\n        /* \"#utility.yul\":7111:7380   */\n    tag_67:\n        /* \"#utility.yul\":7221:7260   */\n      tag_157\n        /* \"#utility.yul\":7252:7259   */\n      dup4\n        /* \"#utility.yul\":7221:7260   */\n      tag_65\n      jump\t// in\n    tag_157:\n        /* \"#utility.yul\":7282:7373   */\n      tag_158\n        /* \"#utility.yul\":7331:7372   */\n      tag_159\n        /* \"#utility.yul\":7355:7371   */\n      dup3\n        /* \"#utility.yul\":7331:7372   */\n      tag_66\n      jump\t// in\n    tag_159:\n        /* \"#utility.yul\":7323:7329   */\n      dup5\n        /* \"#utility.yul\":7316:7320   */\n      dup5\n        /* \"#utility.yul\":7310:7321   */\n      sload\n        /* \"#utility.yul\":7282:7373   */\n      tag_62\n      jump\t// in\n    tag_158:\n        /* \"#utility.yul\":7276:7280   */\n      dup3\n        /* \"#utility.yul\":7269:7374   */\n      sstore\n        /* \"#utility.yul\":7187:7380   */\n      pop\n        /* \"#utility.yul\":7111:7380   */\n      pop\n      pop\n      pop\n      jump\t// out\n        /* \"#utility.yul\":7386:7459   */\n    tag_68:\n        /* \"#utility.yul\":7431:7434   */\n      0x00\n        /* \"#utility.yul\":7386:7459   */\n      swap1\n      jump\t// out\n        /* \"#utility.yul\":7465:7654   */\n    tag_69:\n        /* \"#utility.yul\":7542:7574   */\n      tag_162\n      tag_68\n      jump\t// in\n    tag_162:\n        /* \"#utility.yul\":7583:7648   */\n      tag_163\n        /* \"#utility.yul\":7641:7647   */\n      dup2\n        /* \"#utility.yul\":7633:7639   */\n      dup5\n        /* \"#utility.yul\":7627:7631   */\n      dup5\n        /* \"#utility.yul\":7583:7648   */\n      tag_67\n      jump\t// in\n    tag_163:\n        /* \"#utility.yul\":7518:7654   */\n      pop\n        /* \"#utility.yul\":7465:7654   */\n      pop\n      pop\n      jump\t// out\n        /* \"#utility.yul\":7660:7846   */\n    tag_70:\n        /* \"#utility.yul\":7720:7840   */\n    tag_165:\n        /* \"#utility.yul\":7737:7740   */\n      dup2\n        /* \"#utility.yul\":7730:7735   */\n      dup2\n        /* \"#utility.yul\":7727:7741   */\n      lt\n        /* \"#utility.yul\":7720:7840   */\n      iszero\n      tag_167\n      jumpi\n        /* \"#utility.yul\":7791:7830   */\n      tag_168\n        /* \"#utility.yul\":7828:7829   */\n      0x00\n        /* \"#utility.yul\":7821:7826   */\n      dup3\n        /* \"#utility.yul\":7791:7830   */\n      tag_69\n      jump\t// in\n    tag_168:\n        /* \"#utility.yul\":7764:7765   */\n      0x01\n        /* \"#utility.yul\":7757:7762   */\n      dup2\n        /* \"#utility.yul\":7753:7766   */\n      add\n        /* \"#utility.yul\":7744:7766   */\n      swap1\n      pop\n        /* \"#utility.yul\":7720:7840   */\n      jump(tag_165)\n    tag_167:\n        /* \"#utility.yul\":7660:7846   */\n      pop\n      pop\n      jump\t// out\n        /* \"#utility.yul\":7852:8395   */\n    tag_71:\n        /* \"#utility.yul\":7953:7955   */\n      0x1f\n        /* \"#utility.yul\":7948:7951   */\n      dup3\n        /* \"#utility.yul\":7945:7956   */\n      gt\n        /* \"#utility.yul\":7942:8388   */\n      iszero\n      tag_170\n      jumpi\n        /* \"#utility.yul\":7987:8025   */\n      tag_171\n        /* \"#utility.yul\":8019:8024   */\n      dup2\n        /* \"#utility.yul\":7987:8025   */\n      tag_59\n      jump\t// in\n    tag_171:\n        /* \"#utility.yul\":8071:8100   */\n      tag_172\n        /* \"#utility.yul\":8089:8099   */\n      dup5\n        /* \"#utility.yul\":8071:8100   */\n      tag_60\n      jump\t// in\n    tag_172:\n        /* \"#utility.yul\":8061:8069   */\n      dup2\n        /* \"#utility.yul\":8057:8101   */\n      add\n        /* \"#utility.yul\":8254:8256   */\n      0x20\n        /* \"#utility.yul\":8242:8252   */\n      dup6\n        /* \"#utility.yul\":8239:8257   */\n      lt\n        /* \"#utility.yul\":8236:8285   */\n      iszero\n      tag_173\n      jumpi\n        /* \"#utility.yul\":8275:8283   */\n      dup2\n        /* \"#utility.yul\":8260:8283   */\n      swap1\n      pop\n        /* \"#utility.yul\":8236:8285   */\n    tag_173:\n        /* \"#utility.yul\":8298:8378   */\n      tag_174\n        /* \"#utility.yul\":8354:8376   */\n      tag_175\n        /* \"#utility.yul\":8372:8375   */\n      dup6\n        /* \"#utility.yul\":8354:8376   */\n      tag_60\n      jump\t// in\n    tag_175:\n        /* \"#utility.yul\":8344:8352   */\n      dup4\n        /* \"#utility.yul\":8340:8377   */\n      add\n        /* \"#utility.yul\":8327:8338   */\n      dup3\n        /* \"#utility.yul\":8298:8378   */\n      tag_70\n      jump\t// in\n    tag_174:\n        /* \"#utility.yul\":7957:8388   */\n      pop\n      pop\n        /* \"#utility.yul\":7942:8388   */\n    tag_170:\n        /* \"#utility.yul\":7852:8395   */\n      pop\n      pop\n      pop\n      jump\t// out\n        /* \"#utility.yul\":8401:8518   */\n    tag_72:\n        /* \"#utility.yul\":8455:8463   */\n      0x00\n        /* \"#utility.yul\":8505:8510   */\n      dup3\n        /* \"#utility.yul\":8499:8503   */\n      dup3\n        /* \"#utility.yul\":8495:8511   */\n      shr\n        /* \"#utility.yul\":8474:8511   */\n      swap1\n      pop\n        /* \"#utility.yul\":8401:8518   */\n      swap3\n      swap2\n      pop\n      pop\n      jump\t// out\n        /* \"#utility.yul\":8524:8693   */\n    tag_73:\n        /* \"#utility.yul\":8568:8574   */\n      0x00\n        /* \"#utility.yul\":8601:8652   */\n      tag_178\n        /* \"#utility.yul\":8649:8650   */\n      0x00\n        /* \"#utility.yul\":8645:8651   */\n      not\n        /* \"#utility.yul\":8637:8642   */\n      dup5\n        /* \"#utility.yul\":8634:8635   */\n      0x08\n        /* \"#utility.yul\":8630:8643   */\n      mul\n        /* \"#utility.yul\":8601:8652   */\n      tag_72\n      jump\t// in\n    tag_178:\n        /* \"#utility.yul\":8597:8653   */\n      not\n        /* \"#utility.yul\":8682:8686   */\n      dup1\n        /* \"#utility.yul\":8676:8680   */\n      dup4\n        /* \"#utility.yul\":8672:8687   */\n      and\n        /* \"#utility.yul\":8662:8687   */\n      swap2\n      pop\n        /* \"#utility.yul\":8575:8693   */\n      pop\n        /* \"#utility.yul\":8524:8693   */\n      swap3\n      swap2\n      pop\n      pop\n      jump\t// out\n        /* \"#utility.yul\":8698:8993   */\n    tag_74:\n        /* \"#utility.yul\":8774:8778   */\n      0x00\n        /* \"#utility.yul\":8920:8949   */\n      tag_180\n        /* \"#utility.yul\":8945:8948   */\n      dup4\n        /* \"#utility.yul\":8939:8943   */\n      dup4\n        /* \"#utility.yul\":8920:8949   */\n      tag_73\n      jump\t// in\n    tag_180:\n        /* \"#utility.yul\":8912:8949   */\n      swap2\n      pop\n        /* \"#utility.yul\":8982:8985   */\n      dup3\n        /* \"#utility.yul\":8979:8980   */\n      0x02\n        /* \"#utility.yul\":8975:8986   */\n      mul\n        /* \"#utility.yul\":8969:8973   */\n      dup3\n        /* \"#utility.yul\":8966:8987   */\n      or\n        /* \"#utility.yul\":8958:8987   */\n      swap1\n      pop\n        /* \"#utility.yul\":8698:8993   */\n      swap3\n      swap2\n      pop\n      pop\n      jump\t// out\n        /* \"#utility.yul\":8998:10393   */\n    tag_30:\n        /* \"#utility.yul\":9115:9152   */\n      tag_182\n        /* \"#utility.yul\":9148:9151   */\n      dup3\n        /* \"#utility.yul\":9115:9152   */\n      tag_37\n      jump\t// in\n    tag_182:\n        /* \"#utility.yul\":9217:9235   */\n      0xffffffffffffffff\n        /* \"#utility.yul\":9209:9215   */\n      dup2\n        /* \"#utility.yul\":9206:9236   */\n      gt\n        /* \"#utility.yul\":9203:9259   */\n      iszero\n      tag_183\n      jumpi\n        /* \"#utility.yul\":9239:9257   */\n      tag_184\n      tag_49\n      jump\t// in\n    tag_184:\n        /* \"#utility.yul\":9203:9259   */\n    tag_183:\n        /* \"#utility.yul\":9283:9321   */\n      tag_185\n        /* \"#utility.yul\":9315:9319   */\n      dup3\n        /* \"#utility.yul\":9309:9320   */\n      sload\n        /* \"#utility.yul\":9283:9321   */\n      tag_23\n      jump\t// in\n    tag_185:\n        /* \"#utility.yul\":9368:9435   */\n      tag_186\n        /* \"#utility.yul\":9428:9434   */\n      dup3\n        /* \"#utility.yul\":9420:9426   */\n      dup3\n        /* \"#utility.yul\":9414:9418   */\n      dup6\n        /* \"#utility.yul\":9368:9435   */\n      tag_71\n      jump\t// in\n    tag_186:\n        /* \"#utility.yul\":9462:9463   */\n      0x00\n        /* \"#utility.yul\":9486:9490   */\n      0x20\n        /* \"#utility.yul\":9473:9490   */\n      swap1\n      pop\n        /* \"#utility.yul\":9518:9520   */\n      0x1f\n        /* \"#utility.yul\":9510:9516   */\n      dup4\n        /* \"#utility.yul\":9507:9521   */\n      gt\n        /* \"#utility.yul\":9535:9536   */\n      0x01\n        /* \"#utility.yul\":9530:10148   */\n      dup2\n      eq\n      tag_188\n      jumpi\n        /* \"#utility.yul\":10192:10193   */\n      0x00\n        /* \"#utility.yul\":10209:10215   */\n      dup5\n        /* \"#utility.yul\":10206:10283   */\n      iszero\n      tag_189\n      jumpi\n        /* \"#utility.yul\":10258:10267   */\n      dup3\n        /* \"#utility.yul\":10253:10256   */\n      dup8\n        /* \"#utility.yul\":10249:10268   */\n      add\n        /* \"#utility.yul\":10243:10269   */\n      mload\n        /* \"#utility.yul\":10234:10269   */\n      swap1\n      pop\n        /* \"#utility.yul\":10206:10283   */\n    tag_189:\n        /* \"#utility.yul\":10309:10376   */\n      tag_190\n        /* \"#utility.yul\":10369:10375   */\n      dup6\n        /* \"#utility.yul\":10362:10367   */\n      dup3\n        /* \"#utility.yul\":10309:10376   */\n      tag_74\n      jump\t// in\n    tag_190:\n        /* \"#utility.yul\":10303:10307   */\n      dup7\n        /* \"#utility.yul\":10296:10377   */\n      sstore\n        /* \"#utility.yul\":10165:10387   */\n      pop\n        /* \"#utility.yul\":9500:10387   */\n      jump(tag_187)\n        /* \"#utility.yul\":9530:10148   */\n    tag_188:\n        /* \"#utility.yul\":9582:9586   */\n      0x1f\n        /* \"#utility.yul\":9578:9587   */\n      not\n        /* \"#utility.yul\":9570:9576   */\n      dup5\n        /* \"#utility.yul\":9566:9588   */\n      and\n        /* \"#utility.yul\":9616:9653   */\n      tag_191\n        /* \"#utility.yul\":9648:9652   */\n      dup7\n        /* \"#utility.yul\":9616:9653   */\n      tag_59\n      jump\t// in\n    tag_191:\n        /* \"#utility.yul\":9675:9676   */\n      0x00\n        /* \"#utility.yul\":9689:9897   */\n    tag_192:\n        /* \"#utility.yul\":9703:9710   */\n      dup3\n        /* \"#utility.yul\":9700:9701   */\n      dup2\n        /* \"#utility.yul\":9697:9711   */\n      lt\n        /* \"#utility.yul\":9689:9897   */\n      iszero\n      tag_194\n      jumpi\n        /* \"#utility.yul\":9782:9791   */\n      dup5\n        /* \"#utility.yul\":9777:9780   */\n      dup10\n        /* \"#utility.yul\":9773:9792   */\n      add\n        /* \"#utility.yul\":9767:9793   */\n      mload\n        /* \"#utility.yul\":9759:9765   */\n      dup3\n        /* \"#utility.yul\":9752:9794   */\n      sstore\n        /* \"#utility.yul\":9833:9834   */\n      0x01\n        /* \"#utility.yul\":9825:9831   */\n      dup3\n        /* \"#utility.yul\":9821:9835   */\n      add\n        /* \"#utility.yul\":9811:9835   */\n      swap2\n      pop\n        /* \"#utility.yul\":9880:9882   */\n      0x20\n        /* \"#utility.yul\":9869:9878   */\n      dup6\n        /* \"#utility.yul\":9865:9883   */\n      add\n        /* \"#utility.yul\":9852:9883   */\n      swap5\n      pop\n        /* \"#utility.yul\":9726:9730   */\n      0x20\n        /* \"#utility.yul\":9723:9724   */\n      dup2\n        /* \"#utility.yul\":9719:9731   */\n      add\n        /* \"#utility.yul\":9714:9731   */\n      swap1\n      pop\n        /* \"#utility.yul\":9689:9897   */\n      jump(tag_192)\n    tag_194:\n        /* \"#utility.yul\":9925:9931   */\n      dup7\n        /* \"#utility.yul\":9916:9923   */\n      dup4\n        /* \"#utility.yul\":9913:9932   */\n      lt\n        /* \"#utility.yul\":9910:10089   */\n      iszero\n      tag_195\n      jumpi\n        /* \"#utility.yul\":9983:9992   */\n      dup5\n        /* \"#utility.yul\":9978:9981   */\n      dup10\n        /* \"#utility.yul\":9974:9993   */\n      add\n        /* \"#utility.yul\":9968:9994   */\n      mload\n        /* \"#utility.yul\":10026:10074   */\n      tag_196\n        /* \"#utility.yul\":10068:10072   */\n      0x1f\n        /* \"#utility.yul\":10060:10066   */\n      dup10\n        /* \"#utility.yul\":10056:10073   */\n      and\n        /* \"#utility.yul\":10045:10054   */\n      dup3\n        /* \"#utility.yul\":10026:10074   */\n      tag_73\n      jump\t// in\n    tag_196:\n        /* \"#utility.yul\":10018:10024   */\n      dup4\n        /* \"#utility.yul\":10011:10075   */\n      sstore\n        /* \"#utility.yul\":9933:10089   */\n      pop\n        /* \"#utility.yul\":9910:10089   */\n    tag_195:\n        /* \"#utility.yul\":10135:10136   */\n      0x01\n        /* \"#utility.yul\":10131:10132   */\n      0x02\n        /* \"#utility.yul\":10123:10129   */\n      dup9\n        /* \"#utility.yul\":10119:10133   */\n      mul\n        /* \"#utility.yul\":10115:10137   */\n      add\n        /* \"#utility.yul\":10109:10113   */\n      dup9\n        /* \"#utility.yul\":10102:10138   */\n      sstore\n        /* \"#utility.yul\":9537:10148   */\n      pop\n      pop\n      pop\n        /* \"#utility.yul\":9500:10387   */\n    tag_187:\n      pop\n        /* \"#utility.yul\":9090:10393   */\n      pop\n      pop\n      pop\n        /* \"#utility.yul\":8998:10393   */\n      pop\n      pop\n      jump\t// out\n\n    auxdata: 0xa26469706673582212209ae06cea798e682cd7ab7707deca2dc977ba460d35f22db585cb9907a44906a364736f6c63430008140033\n}\n",
				"bytecode": {
					"linkReferences": {},
					"object": "608060405234801561000f575f80fd5b506108008061001d5f395ff3fe608060405234801561000f575f80fd5b506004361061004a575f3560e01c806306fdde031461004e578063262a9dff1461006c5780638ee307631461008a57806393cca918146100a6575b5f80fd5b6100566100c4565b60405161006391906102b5565b60405180910390f35b61007461014f565b60405161008191906102f0565b60405180910390f35b6100a4600480360381019061009f9190610470565b610161565b005b6100ae61019f565b6040516100bb91906102b5565b60405180910390f35b5f80546100d090610525565b80601f01602080910402602001604051908101604052809291908181526020018280546100fc90610525565b80156101475780601f1061011e57610100808354040283529160200191610147565b820191905f5260205f20905b81548152906001019060200180831161012a57829003601f168201915b505050505081565b60025f9054906101000a900460ff1681565b825f908161016f91906106fb565b50816001908161017f91906106fb565b508060025f6101000a81548160ff021916908360ff160217905550505050565b600180546101ac90610525565b80601f01602080910402602001604051908101604052809291908181526020018280546101d890610525565b80156102235780601f106101fa57610100808354040283529160200191610223565b820191905f5260205f20905b81548152906001019060200180831161020657829003601f168201915b505050505081565b5f81519050919050565b5f82825260208201905092915050565b5f5b83811015610262578082015181840152602081019050610247565b5f8484015250505050565b5f601f19601f8301169050919050565b5f6102878261022b565b6102918185610235565b93506102a1818560208601610245565b6102aa8161026d565b840191505092915050565b5f6020820190508181035f8301526102cd818461027d565b905092915050565b5f60ff82169050919050565b6102ea816102d5565b82525050565b5f6020820190506103035f8301846102e1565b92915050565b5f604051905090565b5f80fd5b5f80fd5b5f80fd5b5f80fd5b7f4e487b71000000000000000000000000000000000000000000000000000000005f52604160045260245ffd5b6103588261026d565b810181811067ffffffffffffffff8211171561037757610376610322565b5b80604052505050565b5f610389610309565b9050610395828261034f565b919050565b5f67ffffffffffffffff8211156103b4576103b3610322565b5b6103bd8261026d565b9050602081019050919050565b828183375f83830152505050565b5f6103ea6103e58461039a565b610380565b9050828152602081018484840111156104065761040561031e565b5b6104118482856103ca565b509392505050565b5f82601f83011261042d5761042c61031a565b5b813561043d8482602086016103d8565b91505092915050565b61044f816102d5565b8114610459575f80fd5b50565b5f8135905061046a81610446565b92915050565b5f805f6060848603121561048757610486610312565b5b5f84013567ffffffffffffffff8111156104a4576104a3610316565b5b6104b086828701610419565b935050602084013567ffffffffffffffff8111156104d1576104d0610316565b5b6104dd86828701610419565b92505060406104ee8682870161045c565b9150509250925092565b7f4e487b71000000000000000000000000000000000000000000000000000000005f52602260045260245ffd5b5f600282049050600182168061053c57607f821691505b60208210810361054f5761054e6104f8565b5b50919050565b5f819050815f5260205f209050919050565b5f6020601f8301049050919050565b5f82821b905092915050565b5f600883026105b17fffffffffffffffffffffffffffffffffffffffffffffffffffffffffffffffff82610576565b6105bb8683610576565b95508019841693508086168417925050509392505050565b5f819050919050565b5f819050919050565b5f6105ff6105fa6105f5846105d3565b6105dc565b6105d3565b9050919050565b5f819050919050565b610618836105e5565b61062c61062482610606565b848454610582565b825550505050565b5f90565b610640610634565b61064b81848461060f565b505050565b5b8181101561066e576106635f82610638565b600181019050610651565b5050565b601f8211156106b35761068481610555565b61068d84610567565b8101602085101561069c578190505b6106b06106a885610567565b830182610650565b50505b505050565b5f82821c905092915050565b5f6106d35f19846008026106b8565b1980831691505092915050565b5f6106eb83836106c4565b9150826002028217905092915050565b6107048261022b565b67ffffffffffffffff81111561071d5761071c610322565b5b6107278254610525565b610732828285610672565b5f60209050601f831160018114610763575f8415610751578287015190505b61075b85826106e0565b8655506107c2565b601f19841661077186610555565b5f5b8281101561079857848901518255600182019150602085019450602081019050610773565b868310156107b557848901516107b1601f8916826106c4565b8355505b6001600288020188555050505b50505050505056fea26469706673582212209ae06cea798e682cd7ab7707deca2dc977ba460d35f22db585cb9907a44906a364736f6c63430008140033",
					"opcodes": "PUSH1 0x80 PUSH1 0x40 MSTORE CALLVALUE DUP1 ISZERO PUSH2 0xF JUMPI PUSH0 DUP1 REVERT JUMPDEST POP PUSH2 0x800 DUP1 PUSH2 0x1D PUSH0 CODECOPY PUSH0 RETURN INVALID PUSH1 0x80 PUSH1 0x40 MSTORE CALLVALUE DUP1 ISZERO PUSH2 0xF JUMPI PUSH0 DUP1 REVERT JUMPDEST POP PUSH1 0x4 CALLDATASIZE LT PUSH2 0x4A JUMPI PUSH0 CALLDATALOAD PUSH1 0xE0 SHR DUP1 PUSH4 0x6FDDE03 EQ PUSH2 0x4E JUMPI DUP1 PUSH4 0x262A9DFF EQ PUSH2 0x6C JUMPI DUP1 PUSH4 0x8EE30763 EQ PUSH2 0x8A JUMPI DUP1 PUSH4 0x93CCA918 EQ PUSH2 0xA6 JUMPI JUMPDEST PUSH0 DUP1 REVERT JUMPDEST PUSH2 0x56 PUSH2 0xC4 JUMP JUMPDEST PUSH1 0x40 MLOAD PUSH2 0x63 SWAP2 SWAP1 PUSH2 0x2B5 JUMP JUMPDEST PUSH1 0x40 MLOAD DUP1 SWAP2 SUB SWAP1 RETURN JUMPDEST PUSH2 0x74 PUSH2 0x14F JUMP JUMPDEST PUSH1 0x40 MLOAD PUSH2 0x81 SWAP2 SWAP1 PUSH2 0x2F0 JUMP JUMPDEST PUSH1 0x40 MLOAD DUP1 SWAP2 SUB SWAP1 RETURN JUMPDEST PUSH2 0xA4 PUSH1 0x4 DUP1 CALLDATASIZE SUB DUP2 ADD SWAP1 PUSH2 0x9F SWAP2 SWAP1 PUSH2 0x470 JUMP JUMPDEST PUSH2 0x161 JUMP JUMPDEST STOP JUMPDEST PUSH2 0xAE PUSH2 0x19F JUMP JUMPDEST PUSH1 0x40 MLOAD PUSH2 0xBB SWAP2 SWAP1 PUSH2 0x2B5 JUMP JUMPDEST PUSH1 0x40 MLOAD DUP1 SWAP2 SUB SWAP1 RETURN JUMPDEST PUSH0 DUP1 SLOAD PUSH2 0xD0 SWAP1 PUSH2 0x525 JUMP JUMPDEST DUP1 PUSH1 0x1F ADD PUSH1 0x20 DUP1 SWAP2 DIV MUL PUSH1 0x20 ADD PUSH1 0x40 MLOAD SWAP1 DUP2 ADD PUSH1 0x40 MSTORE DUP1 SWAP3 SWAP2 SWAP1 DUP2 DUP2 MSTORE PUSH1 0x20 ADD DUP3 DUP1 SLOAD PUSH2 0xFC SWAP1 PUSH2 0x525 JUMP JUMPDEST DUP1 ISZERO PUSH2 0x147 JUMPI DUP1 PUSH1 0x1F LT PUSH2 0x11E JUMPI PUSH2 0x100 DUP1 DUP4 SLOAD DIV MUL DUP4 MSTORE SWAP2 PUSH1 0x20 ADD SWAP2 PUSH2 0x147 JUMP JUMPDEST DUP3 ADD SWAP2 SWAP1 PUSH0 MSTORE PUSH1 0x20 PUSH0 KECCAK256 SWAP1 JUMPDEST DUP2 SLOAD DUP2 MSTORE SWAP1 PUSH1 0x1 ADD SWAP1 PUSH1 0x20 ADD DUP1 DUP4 GT PUSH2 0x12A JUMPI DUP3 SWAP1 SUB PUSH1 0x1F AND DUP3 ADD SWAP2 JUMPDEST POP POP POP POP POP DUP2 JUMP JUMPDEST PUSH1 0x2 PUSH0 SWAP1 SLOAD SWAP1 PUSH2 0x100 EXP SWAP1 DIV PUSH1 0xFF AND DUP2 JUMP JUMPDEST DUP3 PUSH0 SWAP1 DUP2 PUSH2 0x16F SWAP2 SWAP1 PUSH2 0x6FB JUMP JUMPDEST POP DUP2 PUSH1 0x1 SWAP1 DUP2 PUSH2 0x17F SWAP2 SWAP1 PUSH2 0x6FB JUMP JUMPDEST POP DUP1 PUSH1 0x2 PUSH0 PUSH2 0x100 EXP DUP2 SLOAD DUP2 PUSH1 0xFF MUL NOT AND SWAP1 DUP4 PUSH1 0xFF AND MUL OR SWAP1 SSTORE POP POP POP POP JUMP JUMPDEST PUSH1 0x1 DUP1 SLOAD PUSH2 0x1AC SWAP1 PUSH2 0x525 JUMP JUMPDEST DUP1 PUSH1 0x1F ADD PUSH1 0x20 DUP1 SWAP2 DIV MUL PUSH1 0x20 ADD PUSH1 0x40 MLOAD SWAP1 DUP2 ADD PUSH1 0x40 MSTORE DUP1 SWAP3 SWAP2 SWAP1 DUP2 DUP2 MSTORE PUSH1 0x20 ADD DUP3 DUP1 SLOAD PUSH2 0x1D8 SWAP1 PUSH2 0x525 JUMP JUMPDEST DUP1 ISZERO PUSH2 0x223 JUMPI DUP1 PUSH1 0x1F LT PUSH2 0x1FA JUMPI PUSH2 0x100 DUP1 DUP4 SLOAD DIV MUL DUP4 MSTORE SWAP2 PUSH1 0x20 ADD SWAP2 PUSH2 0x223 JUMP JUMPDEST DUP3 ADD SWAP2 SWAP1 PUSH0 MSTORE PUSH1 0x20 PUSH0 KECCAK256 SWAP1 JUMPDEST DUP2 SLOAD DUP2 MSTORE SWAP1 PUSH1 0x1 ADD SWAP1 PUSH1 0x20 ADD DUP1 DUP4 GT PUSH2 0x206 JUMPI DUP3 SWAP1 SUB PUSH1 0x1F AND DUP3 ADD SWAP2 JUMPDEST POP POP POP POP POP DUP2 JUMP JUMPDEST PUSH0 DUP2 MLOAD SWAP1 POP SWAP2 SWAP1 POP JUMP JUMPDEST PUSH0 DUP3 DUP3 MSTORE PUSH1 0x20 DUP3 ADD SWAP1 POP SWAP3 SWAP2 POP POP JUMP JUMPDEST PUSH0 JUMPDEST DUP4 DUP2 LT ISZERO PUSH2 0x262 JUMPI DUP1 DUP3 ADD MLOAD DUP2 DUP5 ADD MSTORE PUSH1 0x20 DUP2 ADD SWAP1 POP PUSH2 0x247 JUMP JUMPDEST PUSH0 DUP5 DUP5 ADD MSTORE POP POP POP POP JUMP JUMPDEST PUSH0 PUSH1 0x1F NOT PUSH1 0x1F DUP4 ADD AND SWAP1 POP SWAP2 SWAP1 POP JUMP JUMPDEST PUSH0 PUSH2 0x287 DUP3 PUSH2 0x22B JUMP JUMPDEST PUSH2 0x291 DUP2 DUP6 PUSH2 0x235 JUMP JUMPDEST SWAP4 POP PUSH2 0x2A1 DUP2 DUP6 PUSH1 0x20 DUP7 ADD PUSH2 0x245 JUMP JUMPDEST PUSH2 0x2AA DUP2 PUSH2 0x26D JUMP JUMPDEST DUP5 ADD SWAP2 POP POP SWAP3 SWAP2 POP POP JUMP JUMPDEST PUSH0 PUSH1 0x20 DUP3 ADD SWAP1 POP DUP2 DUP2 SUB PUSH0 DUP4 ADD MSTORE PUSH2 0x2CD DUP2 DUP5 PUSH2 0x27D JUMP JUMPDEST SWAP1 POP SWAP3 SWAP2 POP POP JUMP JUMPDEST PUSH0 PUSH1 0xFF DUP3 AND SWAP1 POP SWAP2 SWAP1 POP JUMP JUMPDEST PUSH2 0x2EA DUP2 PUSH2 0x2D5 JUMP JUMPDEST DUP3 MSTORE POP POP JUMP JUMPDEST PUSH0 PUSH1 0x20 DUP3 ADD SWAP1 POP PUSH2 0x303 PUSH0 DUP4 ADD DUP5 PUSH2 0x2E1 JUMP JUMPDEST SWAP3 SWAP2 POP POP JUMP JUMPDEST PUSH0 PUSH1 0x40 MLOAD SWAP1 POP SWAP1 JUMP JUMPDEST PUSH0 DUP1 REVERT JUMPDEST PUSH0 DUP1 REVERT JUMPDEST PUSH0 DUP1 REVERT JUMPDEST PUSH0 DUP1 REVERT JUMPDEST PUSH32 0x4E487B7100000000000000000000000000000000000000000000000000000000 PUSH0 MSTORE PUSH1 0x41 PUSH1 0x4 MSTORE PUSH1 0x24 PUSH0 REVERT JUMPDEST PUSH2 0x358 DUP3 PUSH2 0x26D JUMP JUMPDEST DUP2 ADD DUP2 DUP2 LT PUSH8 0xFFFFFFFFFFFFFFFF DUP3 GT OR ISZERO PUSH2 0x377 JUMPI PUSH2 0x376 PUSH2 0x322 JUMP JUMPDEST JUMPDEST DUP1 PUSH1 0x40 MSTORE POP POP POP JUMP JUMPDEST PUSH0 PUSH2 0x389 PUSH2 0x309 JUMP JUMPDEST SWAP1 POP PUSH2 0x395 DUP3 DUP3 PUSH2 0x34F JUMP JUMPDEST SWAP2 SWAP1 POP JUMP JUMPDEST PUSH0 PUSH8 0xFFFFFFFFFFFFFFFF DUP3 GT ISZERO PUSH2 0x3B4 JUMPI PUSH2 0x3B3 PUSH2 0x322 JUMP JUMPDEST JUMPDEST PUSH2 0x3BD DUP3 PUSH2 0x26D JUMP JUMPDEST SWAP1 POP PUSH1 0x20 DUP2 ADD SWAP1 POP SWAP2 SWAP1 POP JUMP JUMPDEST DUP3 DUP2 DUP4 CALLDATACOPY PUSH0 DUP4 DUP4 ADD MSTORE POP POP POP JUMP JUMPDEST PUSH0 PUSH2 0x3EA PUSH2 0x3E5 DUP5 PUSH2 0x39A JUMP JUMPDEST PUSH2 0x380 JUMP JUMPDEST SWAP1 POP DUP3 DUP2 MSTORE PUSH1 0x20 DUP2 ADD DUP5 DUP5 DUP5 ADD GT ISZERO PUSH2 0x406 JUMPI PUSH2 0x405 PUSH2 0x31E JUMP JUMPDEST JUMPDEST PUSH2 0x411 DUP5 DUP3 DUP6 PUSH2 0x3CA JUMP JUMPDEST POP SWAP4 SWAP3 POP POP POP JUMP JUMPDEST PUSH0 DUP3 PUSH1 0x1F DUP4 ADD SLT PUSH2 0x42D JUMPI PUSH2 0x42C PUSH2 0x31A JUMP JUMPDEST JUMPDEST DUP2 CALLDATALOAD PUSH2 0x43D DUP5 DUP3 PUSH1 0x20 DUP7 ADD PUSH2 0x3D8 JUMP JUMPDEST SWAP2 POP POP SWAP3 SWAP2 POP POP JUMP JUMPDEST PUSH2 0x44F DUP2 PUSH2 0x2D5 JUMP JUMPDEST DUP2 EQ PUSH2 0x459 JUMPI PUSH0 DUP1 REVERT JUMPDEST POP JUMP JUMPDEST PUSH0 DUP2 CALLDATALOAD SWAP1 POP PUSH2 0x46A DUP2 PUSH2 0x446 JUMP JUMPDEST SWAP3 SWAP2 POP POP JUMP JUMPDEST PUSH0 DUP1 PUSH0 PUSH1 0x60 DUP5 DUP7 SUB SLT ISZERO PUSH2 0x487 JUMPI PUSH2 0x486 PUSH2 0x312 JUMP JUMPDEST JUMPDEST PUSH0 DUP5 ADD CALLDATALOAD PUSH8 0xFFFFFFFFFFFFFFFF DUP2 GT ISZERO PUSH2 0x4A4 JUMPI PUSH2 0x4A3 PUSH2 0x316 JUMP JUMPDEST JUMPDEST PUSH2 0x4B0 DUP7 DUP3 DUP8 ADD PUSH2 0x419 JUMP JUMPDEST SWAP4 POP POP PUSH1 0x20 DUP5 ADD CALLDATALOAD PUSH8 0xFFFFFFFFFFFFFFFF DUP2 GT ISZERO PUSH2 0x4D1 JUMPI PUSH2 0x4D0 PUSH2 0x316 JUMP JUMPDEST JUMPDEST PUSH2 0x4DD DUP7 DUP3 DUP8 ADD PUSH2 0x419 JUMP JUMPDEST SWAP3 POP POP PUSH1 0x40 PUSH2 0x4EE DUP7 DUP3 DUP8 ADD PUSH2 0x45C JUMP JUMPDEST SWAP2 POP POP SWAP3 POP SWAP3 POP SWAP3 JUMP JUMPDEST PUSH32 0x4E487B7100000000000000000000000000000000000000000000000000000000 PUSH0 MSTORE PUSH1 0x22 PUSH1 0x4 MSTORE PUSH1 0x24 PUSH0 REVERT JUMPDEST PUSH0 PUSH1 0x2 DUP3 DIV SWAP1 POP PUSH1 0x1 DUP3 AND DUP1 PUSH2 0x53C JUMPI PUSH1 0x7F DUP3 AND SWAP2 POP JUMPDEST PUSH1 0x20 DUP3 LT DUP2 SUB PUSH2 0x54F JUMPI PUSH2 0x54E PUSH2 0x4F8 JUMP JUMPDEST JUMPDEST POP SWAP2 SWAP1 POP JUMP JUMPDEST PUSH0 DUP2 SWAP1 POP DUP2 PUSH0 MSTORE PUSH1 0x20 PUSH0 KECCAK256 SWAP1 POP SWAP2 SWAP1 POP JUMP JUMPDEST PUSH0 PUSH1 0x20 PUSH1 0x1F DUP4 ADD DIV SWAP1 POP SWAP2 SWAP1 POP JUMP JUMPDEST PUSH0 DUP3 DUP3 SHL SWAP1 POP SWAP3 SWAP2 POP POP JUMP JUMPDEST PUSH0 PUSH1 0x8 DUP4 MUL PUSH2 0x5B1 PUSH32 0xFFFFFFFFFFFFFFFFFFFFFFFFFFFFFFFFFFFFFFFFFFFFFFFFFFFFFFFFFFFFFFFF DUP3 PUSH2 0x576 JUMP JUMPDEST PUSH2 0x5BB DUP7 DUP4 PUSH2 0x576 JUMP JUMPDEST SWAP6 POP DUP1 NOT DUP5 AND SWAP4 POP DUP1 DUP7 AND DUP5 OR SWAP3 POP POP POP SWAP4 SWAP3 POP POP POP JUMP JUMPDEST PUSH0 DUP2 SWAP1 POP SWAP2 SWAP1 POP JUMP JUMPDEST PUSH0 DUP2 SWAP1 POP SWAP2 SWAP1 POP JUMP JUMPDEST PUSH0 PUSH2 0x5FF PUSH2 0x5FA PUSH2 0x5F5 DUP5 PUSH2 0x5D3 JUMP JUMPDEST PUSH2 0x5DC JUMP JUMPDEST PUSH2 0x5D3 JUMP JUMPDEST SWAP1 POP SWAP2 SWAP1 POP JUMP JUMPDEST PUSH0 DUP2 SWAP1 POP SWAP2 SWAP1 POP JUMP JUMPDEST PUSH2 0x618 DUP4 PUSH2 0x5E5 JUMP JUMPDEST PUSH2 0x62C PUSH2 0x624 DUP3 PUSH2 0x606 JUMP JUMPDEST DUP5 DUP5 SLOAD PUSH2 0x582 JUMP JUMPDEST DUP3 SSTORE POP POP POP POP JUMP JUMPDEST PUSH0 SWAP1 JUMP JUMPDEST PUSH2 0x640 PUSH2 0x634 JUMP JUMPDEST PUSH2 0x64B DUP2 DUP5 DUP5 PUSH2 0x60F JUMP JUMPDEST POP POP POP JUMP JUMPDEST JUMPDEST DUP2 DUP2 LT ISZERO PUSH2 0x66E JUMPI PUSH2 0x663 PUSH0 DUP3 PUSH2 0x638 JUMP JUMPDEST PUSH1 0x1 DUP2 ADD SWAP1 POP PUSH2 0x651 JUMP JUMPDEST POP POP JUMP JUMPDEST PUSH1 0x1F DUP3 GT ISZERO PUSH2 0x6B3 JUMPI PUSH2 0x684 DUP2 PUSH2 0x555 JUMP JUMPDEST PUSH2 0x68D DUP5 PUSH2 0x567 JUMP JUMPDEST DUP2 ADD PUSH1 0x20 DUP6 LT ISZERO PUSH2 0x69C JUMPI DUP2 SWAP1 POP JUMPDEST PUSH2 0x6B0 PUSH2 0x6A8 DUP6 PUSH2 0x567 JUMP JUMPDEST DUP4 ADD DUP3 PUSH2 0x650 JUMP JUMPDEST POP POP JUMPDEST POP POP POP JUMP JUMPDEST PUSH0 DUP3 DUP3 SHR SWAP1 POP SWAP3 SWAP2 POP POP JUMP JUMPDEST PUSH0 PUSH2 0x6D3 PUSH0 NOT DUP5 PUSH1 0x8 MUL PUSH2 0x6B8 JUMP JUMPDEST NOT DUP1 DUP4 AND SWAP2 POP POP SWAP3 SWAP2 POP POP JUMP JUMPDEST PUSH0 PUSH2 0x6EB DUP4 DUP4 PUSH2 0x6C4 JUMP JUMPDEST SWAP2 POP DUP3 PUSH1 0x2 MUL DUP3 OR SWAP1 POP SWAP3 SWAP2 POP POP JUMP JUMPDEST PUSH2 0x704 DUP3 PUSH2 0x22B JUMP JUMPDEST PUSH8 0xFFFFFFFFFFFFFFFF DUP2 GT ISZERO PUSH2 0x71D JUMPI PUSH2 0x71C PUSH2 0x322 JUMP JUMPDEST JUMPDEST PUSH2 0x727 DUP3 SLOAD PUSH2 0x525 JUMP JUMPDEST PUSH2 0x732 DUP3 DUP3 DUP6 PUSH2 0x672 JUMP JUMPDEST PUSH0 PUSH1 0x20 SWAP1 POP PUSH1 0x1F DUP4 GT PUSH1 0x1 DUP2 EQ PUSH2 0x763 JUMPI PUSH0 DUP5 ISZERO PUSH2 0x751 JUMPI DUP3 DUP8 ADD MLOAD SWAP1 POP JUMPDEST PUSH2 0x75B DUP6 DUP3 PUSH2 0x6E0 JUMP JUMPDEST DUP7 SSTORE POP PUSH2 0x7C2 JUMP JUMPDEST PUSH1 0x1F NOT DUP5 AND PUSH2 0x771 DUP7 PUSH2 0x555 JUMP JUMPDEST PUSH0 JUMPDEST DUP3 DUP2 LT ISZERO PUSH2 0x798 JUMPI DUP5 DUP10 ADD MLOAD DUP3 SSTORE PUSH1 0x1 DUP3 ADD SWAP2 POP PUSH1 0x20 DUP6 ADD SWAP5 POP PUSH1 0x20 DUP2 ADD SWAP1 POP PUSH2 0x773 JUMP JUMPDEST DUP7 DUP4 LT ISZERO PUSH2 0x7B5 JUMPI DUP5 DUP10 ADD MLOAD PUSH2 0x7B1 PUSH1 0x1F DUP10 AND DUP3 PUSH2 0x6C4 JUMP JUMPDEST DUP4 SSTORE POP JUMPDEST PUSH1 0x1 PUSH1 0x2 DUP9 MUL ADD DUP9 SSTORE POP POP POP JUMPDEST POP POP POP POP POP POP JUMP INVALID LOG2 PUSH5 0x6970667358 0x22 SLT KECCAK256 SWAP11 0xE0 PUSH13 0xEA798E682CD7AB7707DECA2DC9 PUSH24 0xBA460D35F22DB585CB9907A44906A364736F6C6343000814 STOP CALLER "
				},
				"gasEstimates": {
					"creation": {
						"codeDepositCost": "409600",
						"executionCost": "441",
						"totalCost": "410041"
					},
					"external": {
						"age()": "2466",
						"getData(string,string,uint8)": "infinite",
						"name()": "infinite",
						"place()": "infinite"
					}
				},
				"methodIdentifiers": {
					"age()": "262a9dff",
					"getData(string,string,uint8)": "8ee30763",
					"name()": "06fdde03",
					"place()": "93cca918"
				}
			},
			"storageLayout": {
				"storage": [
					{
						"astId": 3,
						"contract": "contracts/UserData.sol:UserData",
						"label": "name",
						"offset": 0,
						"slot": "0",
						"type": "t_string_storage"
					},
					{
						"astId": 5,
						"contract": "contracts/UserData.sol:UserData",
						"label": "place",
						"offset": 0,
						"slot": "1",
						"type": "t_string_storage"
					},
					{
						"astId": 7,
						"contract": "contracts/UserData.sol:UserData",
						"label": "age",
						"offset": 0,
						"slot": "2",
						"type": "t_uint8"
					}
				],
				"types": {
					"t_string_storage": {
						"encoding": "bytes",
						"label": "string",
						"numberOfBytes": "32"
					},
					"t_uint8": {
						"encoding": "inplace",
						"label": "uint8",
						"numberOfBytes": "1"
					}
				}
			},
			"userdoc": {
				"kind": "user",
				"methods": {},
				"version": 1
			}
		}
	}
}