{
	"contracts/Test2.sol": {
		"D": {
			"abi": [
				{
					"inputs": [],
					"name": "data",
					"outputs": [
						{
							"internalType": "uint256",
							"name": "",
							"type": "uint256"
						}
					],
					"stateMutability": "view",
					"type": "function"
				},
				{
					"inputs": [],
					"name": "getResult",
					"outputs": [
						{
							"internalType": "uint256",
							"name": "",
							"type": "uint256"
						}
					],
					"stateMutability": "view",
					"type": "function"
				},
				{
					"inputs": [],
					"name": "x",
					"outputs": [
						{
							"internalType": "uint256",
							"name": "",
							"type": "uint256"
						}
					],
					"stateMutability": "nonpayable",
					"type": "function"
				},
				{
					"inputs": [],
					"name": "y",
					"outputs": [
						{
							"internalType": "uint256",
							"name": "",
							"type": "uint256"
						}
					],
					"stateMutability": "nonpayable",
					"type": "function"
				}
			],
			"devdoc": {
				"kind": "dev",
				"methods": {},
				"version": 1
			},
			"evm": {
				"assembly": "    /* \"contracts/Test2.sol\":357:663  contract D is C {... */\n  mstore(0x40, 0x80)\n    /* \"contracts/Test2.sol\":91:93  30 */\n  0x1e\n    /* \"contracts/Test2.sol\":72:93  uint public data = 30 */\n  0x00\n  sstore\n    /* \"contracts/Test2.sol\":119:121  10 */\n  0x0a\n    /* \"contracts/Test2.sol\":98:121  uint internal iData= 10 */\n  0x01\n  sstore\n    /* \"contracts/Test2.sol\":357:663  contract D is C {... */\n  callvalue\n  dup1\n  iszero\n  tag_1\n  jumpi\n  0x00\n  dup1\n  revert\ntag_1:\n  pop\n  dataSize(sub_0)\n  dup1\n  dataOffset(sub_0)\n  0x00\n  codecopy\n  0x00\n  return\nstop\n\nsub_0: assembly {\n        /* \"contracts/Test2.sol\":357:663  contract D is C {... */\n      mstore(0x40, 0x80)\n      callvalue\n      dup1\n      iszero\n      tag_1\n      jumpi\n      0x00\n      dup1\n      revert\n    tag_1:\n      pop\n      jumpi(tag_2, lt(calldatasize, 0x04))\n      shr(0xe0, calldataload(0x00))\n      dup1\n      0x0c55699c\n      eq\n      tag_3\n      jumpi\n      dup1\n      0x73d4a13a\n      eq\n      tag_4\n      jumpi\n      dup1\n      0xa56dfe4a\n      eq\n      tag_5\n      jumpi\n      dup1\n      0xde292789\n      eq\n      tag_6\n      jumpi\n    tag_2:\n      0x00\n      dup1\n      revert\n        /* \"contracts/Test2.sol\":130:225  function x() public returns (uint) {... */\n    tag_3:\n      tag_7\n      tag_8\n      jump\t// in\n    tag_7:\n      mload(0x40)\n      tag_9\n      swap2\n      swap1\n      tag_10\n      jump\t// in\n    tag_9:\n      mload(0x40)\n      dup1\n      swap2\n      sub\n      swap1\n      return\n        /* \"contracts/Test2.sol\":72:93  uint public data = 30 */\n    tag_4:\n      tag_11\n      tag_12\n      jump\t// in\n    tag_11:\n      mload(0x40)\n      tag_13\n      swap2\n      swap1\n      tag_10\n      jump\t// in\n    tag_13:\n      mload(0x40)\n      dup1\n      swap2\n      sub\n      swap1\n      return\n        /* \"contracts/Test2.sol\":378:475  function y() public returns (uint) {... */\n    tag_5:\n      tag_14\n      tag_15\n      jump\t// in\n    tag_14:\n      mload(0x40)\n      tag_16\n      swap2\n      swap1\n      tag_10\n      jump\t// in\n    tag_16:\n      mload(0x40)\n      dup1\n      swap2\n      sub\n      swap1\n      return\n        /* \"contracts/Test2.sol\":479:661  function getResult() public view returns(uint){... */\n    tag_6:\n      tag_17\n      tag_18\n      jump\t// in\n    tag_17:\n      mload(0x40)\n      tag_19\n      swap2\n      swap1\n      tag_10\n      jump\t// in\n    tag_19:\n      mload(0x40)\n      dup1\n      swap2\n      sub\n      swap1\n      return\n        /* \"contracts/Test2.sol\":130:225  function x() public returns (uint) {... */\n    tag_8:\n        /* \"contracts/Test2.sol\":159:163  uint */\n      0x00\n        /* \"contracts/Test2.sol\":180:181  3 */\n      0x03\n        /* \"contracts/Test2.sol\":173:177  data */\n      0x00\n        /* \"contracts/Test2.sol\":173:181  data = 3 */\n      dup2\n      swap1\n      sstore\n      pop\n        /* \"contracts/Test2.sol\":215:219  data */\n      sload(0x00)\n        /* \"contracts/Test2.sol\":208:219  return data */\n      swap1\n      pop\n        /* \"contracts/Test2.sol\":130:225  function x() public returns (uint) {... */\n      swap1\n      jump\t// out\n        /* \"contracts/Test2.sol\":72:93  uint public data = 30 */\n    tag_12:\n      sload(0x00)\n      dup2\n      jump\t// out\n        /* \"contracts/Test2.sol\":378:475  function y() public returns (uint) {... */\n    tag_15:\n        /* \"contracts/Test2.sol\":407:411  uint */\n      0x00\n        /* \"contracts/Test2.sol\":429:430  3 */\n      0x03\n        /* \"contracts/Test2.sol\":421:426  iData */\n      0x01\n        /* \"contracts/Test2.sol\":421:430  iData = 3 */\n      dup2\n      swap1\n      sstore\n      pop\n        /* \"contracts/Test2.sol\":464:469  iData */\n      sload(0x01)\n        /* \"contracts/Test2.sol\":457:469  return iData */\n      swap1\n      pop\n        /* \"contracts/Test2.sol\":378:475  function y() public returns (uint) {... */\n      swap1\n      jump\t// out\n        /* \"contracts/Test2.sol\":479:661  function getResult() public view returns(uint){... */\n    tag_18:\n        /* \"contracts/Test2.sol\":520:524  uint */\n      0x00\n        /* \"contracts/Test2.sol\":533:539  uint a */\n      dup1\n        /* \"contracts/Test2.sol\":542:543  1 */\n      0x01\n        /* \"contracts/Test2.sol\":533:543  uint a = 1 */\n      swap1\n      pop\n        /* \"contracts/Test2.sol\":569:575  uint b */\n      0x00\n        /* \"contracts/Test2.sol\":578:579  2 */\n      0x02\n        /* \"contracts/Test2.sol\":569:579  uint b = 2 */\n      swap1\n      pop\n        /* \"contracts/Test2.sol\":587:598  uint result */\n      0x00\n        /* \"contracts/Test2.sol\":605:606  b */\n      dup2\n        /* \"contracts/Test2.sol\":601:602  a */\n      dup4\n        /* \"contracts/Test2.sol\":601:606  a + b */\n      tag_23\n      swap2\n      swap1\n      tag_24\n      jump\t// in\n    tag_23:\n        /* \"contracts/Test2.sol\":587:606  uint result = a + b */\n      swap1\n      pop\n        /* \"contracts/Test2.sol\":621:627  result */\n      dup1\n        /* \"contracts/Test2.sol\":614:627  return result */\n      swap4\n      pop\n      pop\n      pop\n      pop\n        /* \"contracts/Test2.sol\":479:661  function getResult() public view returns(uint){... */\n      swap1\n      jump\t// out\n        /* \"#utility.yul\":7:84   */\n    tag_25:\n        /* \"#utility.yul\":44:51   */\n      0x00\n        /* \"#utility.yul\":73:78   */\n      dup2\n        /* \"#utility.yul\":62:78   */\n      swap1\n      pop\n        /* \"#utility.yul\":7:84   */\n      swap2\n      swap1\n      pop\n      jump\t// out\n        /* \"#utility.yul\":90:208   */\n    tag_26:\n        /* \"#utility.yul\":177:201   */\n      tag_31\n        /* \"#utility.yul\":195:200   */\n      dup2\n        /* \"#utility.yul\":177:201   */\n      tag_25\n      jump\t// in\n    tag_31:\n        /* \"#utility.yul\":172:175   */\n      dup3\n        /* \"#utility.yul\":165:202   */\n      mstore\n        /* \"#utility.yul\":90:208   */\n      pop\n      pop\n      jump\t// out\n        /* \"#utility.yul\":214:436   */\n    tag_10:\n        /* \"#utility.yul\":307:311   */\n      0x00\n        /* \"#utility.yul\":345:347   */\n      0x20\n        /* \"#utility.yul\":334:343   */\n      dup3\n        /* \"#utility.yul\":330:348   */\n      add\n        /* \"#utility.yul\":322:348   */\n      swap1\n      pop\n        /* \"#utility.yul\":358:429   */\n      tag_33\n        /* \"#utility.yul\":426:427   */\n      0x00\n        /* \"#utility.yul\":415:424   */\n      dup4\n        /* \"#utility.yul\":411:428   */\n      add\n        /* \"#utility.yul\":402:408   */\n      dup5\n        /* \"#utility.yul\":358:429   */\n      tag_26\n      jump\t// in\n    tag_33:\n        /* \"#utility.yul\":214:436   */\n      swap3\n      swap2\n      pop\n      pop\n      jump\t// out\n        /* \"#utility.yul\":442:622   */\n    tag_27:\n        /* \"#utility.yul\":490:567   */\n      0x4e487b7100000000000000000000000000000000000000000000000000000000\n        /* \"#utility.yul\":487:488   */\n      0x00\n        /* \"#utility.yul\":480:568   */\n      mstore\n        /* \"#utility.yul\":587:591   */\n      0x11\n        /* \"#utility.yul\":584:585   */\n      0x04\n        /* \"#utility.yul\":577:592   */\n      mstore\n        /* \"#utility.yul\":611:615   */\n      0x24\n        /* \"#utility.yul\":608:609   */\n      0x00\n        /* \"#utility.yul\":601:616   */\n      revert\n        /* \"#utility.yul\":628:819   */\n    tag_24:\n        /* \"#utility.yul\":668:671   */\n      0x00\n        /* \"#utility.yul\":687:707   */\n      tag_36\n        /* \"#utility.yul\":705:706   */\n      dup3\n        /* \"#utility.yul\":687:707   */\n      tag_25\n      jump\t// in\n    tag_36:\n        /* \"#utility.yul\":682:707   */\n      swap2\n      pop\n        /* \"#utility.yul\":721:741   */\n      tag_37\n        /* \"#utility.yul\":739:740   */\n      dup4\n        /* \"#utility.yul\":721:741   */\n      tag_25\n      jump\t// in\n    tag_37:\n        /* \"#utility.yul\":716:741   */\n      swap3\n      pop\n        /* \"#utility.yul\":764:765   */\n      dup3\n        /* \"#utility.yul\":761:762   */\n      dup3\n        /* \"#utility.yul\":757:766   */\n      add\n        /* \"#utility.yul\":750:766   */\n      swap1\n      pop\n        /* \"#utility.yul\":785:788   */\n      dup1\n        /* \"#utility.yul\":782:783   */\n      dup3\n        /* \"#utility.yul\":779:789   */\n      gt\n        /* \"#utility.yul\":776:812   */\n      iszero\n      tag_38\n      jumpi\n        /* \"#utility.yul\":792:810   */\n      tag_39\n      tag_27\n      jump\t// in\n    tag_39:\n        /* \"#utility.yul\":776:812   */\n    tag_38:\n        /* \"#utility.yul\":628:819   */\n      swap3\n      swap2\n      pop\n      pop\n      jump\t// out\n\n    auxdata: 0xa2646970667358221220b7a9a731fb7a426bf5ffb61041b9a035a9b9a58d1e9f2196de9ae8d5a07a1b8164736f6c63430008140033\n}\n",
				"bytecode": {
					"linkReferences": {},
					"object": "6080604052601e5f55600a600155348015610018575f80fd5b506101d5806100265f395ff3fe608060405234801561000f575f80fd5b506004361061004a575f3560e01c80630c55699c1461004e57806373d4a13a1461006c578063a56dfe4a1461008a578063de292789146100a8575b5f80fd5b6100566100c6565b6040516100639190610126565b60405180910390f35b6100746100d5565b6040516100819190610126565b60405180910390f35b6100926100da565b60405161009f9190610126565b60405180910390f35b6100b06100eb565b6040516100bd9190610126565b60405180910390f35b5f60035f819055505f54905090565b5f5481565b5f6003600181905550600154905090565b5f80600190505f600290505f8183610103919061016c565b905080935050505090565b5f819050919050565b6101208161010e565b82525050565b5f6020820190506101395f830184610117565b92915050565b7f4e487b71000000000000000000000000000000000000000000000000000000005f52601160045260245ffd5b5f6101768261010e565b91506101818361010e565b92508282019050808211156101995761019861013f565b5b9291505056fea2646970667358221220b7a9a731fb7a426bf5ffb61041b9a035a9b9a58d1e9f2196de9ae8d5a07a1b8164736f6c63430008140033",
					"opcodes": "PUSH1 0x80 PUSH1 0x40 MSTORE PUSH1 0x1E PUSH0 SSTORE PUSH1 0xA PUSH1 0x1 SSTORE CALLVALUE DUP1 ISZERO PUSH2 0x18 JUMPI PUSH0 DUP1 REVERT JUMPDEST POP PUSH2 0x1D5 DUP1 PUSH2 0x26 PUSH0 CODECOPY PUSH0 RETURN INVALID PUSH1 0x80 PUSH1 0x40 MSTORE CALLVALUE DUP1 ISZERO PUSH2 0xF JUMPI PUSH0 DUP1 REVERT JUMPDEST POP PUSH1 0x4 CALLDATASIZE LT PUSH2 0x4A JUMPI PUSH0 CALLDATALOAD PUSH1 0xE0 SHR DUP1 PUSH4 0xC55699C EQ PUSH2 0x4E JUMPI DUP1 PUSH4 0x73D4A13A EQ PUSH2 0x6C JUMPI DUP1 PUSH4 0xA56DFE4A EQ PUSH2 0x8A JUMPI DUP1 PUSH4 0xDE292789 EQ PUSH2 0xA8 JUMPI JUMPDEST PUSH0 DUP1 REVERT JUMPDEST PUSH2 0x56 PUSH2 0xC6 JUMP JUMPDEST PUSH1 0x40 MLOAD PUSH2 0x63 SWAP2 SWAP1 PUSH2 0x126 JUMP JUMPDEST PUSH1 0x40 MLOAD DUP1 SWAP2 SUB SWAP1 RETURN JUMPDEST PUSH2 0x74 PUSH2 0xD5 JUMP JUMPDEST PUSH1 0x40 MLOAD PUSH2 0x81 SWAP2 SWAP1 PUSH2 0x126 JUMP JUMPDEST PUSH1 0x40 MLOAD DUP1 SWAP2 SUB SWAP1 RETURN JUMPDEST PUSH2 0x92 PUSH2 0xDA JUMP JUMPDEST PUSH1 0x40 MLOAD PUSH2 0x9F SWAP2 SWAP1 PUSH2 0x126 JUMP JUMPDEST PUSH1 0x40 MLOAD DUP1 SWAP2 SUB SWAP1 RETURN JUMPDEST PUSH2 0xB0 PUSH2 0xEB JUMP JUMPDEST PUSH1 0x40 MLOAD PUSH2 0xBD SWAP2 SWAP1 PUSH2 0x126 JUMP JUMPDEST PUSH1 0x40 MLOAD DUP1 SWAP2 SUB SWAP1 RETURN JUMPDEST PUSH0 PUSH1 0x3 PUSH0 DUP2 SWAP1 SSTORE POP PUSH0 SLOAD SWAP1 POP SWAP1 JUMP JUMPDEST PUSH0 SLOAD DUP2 JUMP JUMPDEST PUSH0 PUSH1 0x3 PUSH1 0x1 DUP2 SWAP1 SSTORE POP PUSH1 0x1 SLOAD SWAP1 POP SWAP1 JUMP JUMPDEST PUSH0 DUP1 PUSH1 0x1 SWAP1 POP PUSH0 PUSH1 0x2 SWAP1 POP PUSH0 DUP2 DUP4 PUSH2 0x103 SWAP2 SWAP1 PUSH2 0x16C JUMP JUMPDEST SWAP1 POP DUP1 SWAP4 POP POP POP POP SWAP1 JUMP JUMPDEST PUSH0 DUP2 SWAP1 POP SWAP2 SWAP1 POP JUMP JUMPDEST PUSH2 0x120 DUP2 PUSH2 0x10E JUMP JUMPDEST DUP3 MSTORE POP POP JUMP JUMPDEST PUSH0 PUSH1 0x20 DUP3 ADD SWAP1 POP PUSH2 0x139 PUSH0 DUP4 ADD DUP5 PUSH2 0x117 JUMP JUMPDEST SWAP3 SWAP2 POP POP JUMP JUMPDEST PUSH32 0x4E487B7100000000000000000000000000000000000000000000000000000000 PUSH0 MSTORE PUSH1 0x11 PUSH1 0x4 MSTORE PUSH1 0x24 PUSH0 REVERT JUMPDEST PUSH0 PUSH2 0x176 DUP3 PUSH2 0x10E JUMP JUMPDEST SWAP2 POP PUSH2 0x181 DUP4 PUSH2 0x10E JUMP JUMPDEST SWAP3 POP DUP3 DUP3 ADD SWAP1 POP DUP1 DUP3 GT ISZERO PUSH2 0x199 JUMPI PUSH2 0x198 PUSH2 0x13F JUMP JUMPDEST JUMPDEST SWAP3 SWAP2 POP POP JUMP INVALID LOG2 PUSH5 0x6970667358 0x22 SLT KECCAK256 0xB7 0xA9 0xA7 BALANCE 0xFB PUSH27 0x426BF5FFB61041B9A035A9B9A58D1E9F2196DE9AE8D5A07A1B8164 PUSH20 0x6F6C634300081400330000000000000000000000 "
				},
				"gasEstimates": {
					"creation": {
						"codeDepositCost": "93800",
						"executionCost": "44350",
						"totalCost": "138150"
					},
					"external": {
						"data()": "2424",
						"getResult()": "infinite",
						"x()": "24522",
						"y()": "24568"
					}
				},
				"methodIdentifiers": {
					"data()": "73d4a13a",
					"getResult()": "de292789",
					"x()": "0c55699c",
					"y()": "a56dfe4a"
				}
			},
			"storageLayout": {
				"storage": [
					{
						"astId": 4,
						"contract": "contracts/Test2.sol:D",
						"label": "data",
						"offset": 0,
						"slot": "0",
						"type": "t_uint256"
					},
					{
						"astId": 7,
						"contract": "contracts/Test2.sol:D",
						"label": "iData",
						"offset": 0,
						"slot": "1",
						"type": "t_uint256"
					}
				],
				"types": {
					"t_uint256": {
						"encoding": "inplace",
						"label": "uint256",
						"numberOfBytes": "32"
					}
				}
			},
			"userdoc": {
				"kind": "user",
				"methods": {},
				"version": 1
			}
		}
	}
}