{
	"data": {
		"bytecode": {
			"linkReferences": {},
			"object": "608060405234801561000f575f80fd5b5061023f8061001d5f395ff3fe608060405234801561000f575f80fd5b5060043610610029575f3560e01c80632283bffd1461002d575b5f80fd5b610035610037565b005b5f600790505f600767ffffffffffffffff81111561005857610057610182565b5b6040519080825280602002602001820160405280156100865781602001602082028036833780820191505090505b5090505f8267ffffffffffffffff8111156100a4576100a3610182565b5b6040519080825280601f01601f1916602001820160405280156100d65781602001600182028036833780820191505090505b50905060078251146100eb576100ea6101af565b5b828151146100fc576100fb6101af565b5b600882600681518110610112576101116101dc565b5b602002602001018181525050600882600681518110610134576101336101dc565b5b60200260200101511461014a576101496101af565b5b5f60405180606001604052806001815260200160028152602001600381525090506003801461017c5761017b6101af565b5b50505050565b7f4e487b71000000000000000000000000000000000000000000000000000000005f52604160045260245ffd5b7f4e487b71000000000000000000000000000000000000000000000000000000005f52600160045260245ffd5b7f4e487b71000000000000000000000000000000000000000000000000000000005f52603260045260245ffdfea2646970667358221220c70a414c9561e3bd3a2e449ec2cfd7df212651571ff4150aee34dd6fe015a1a564736f6c63430008140033",
			"opcodes": "PUSH1 0x80 PUSH1 0x40 MSTORE CALLVALUE DUP1 ISZERO PUSH2 0xF JUMPI PUSH0 DUP1 REVERT JUMPDEST POP PUSH2 0x23F DUP1 PUSH2 0x1D PUSH0 CODECOPY PUSH0 RETURN INVALID PUSH1 0x80 PUSH1 0x40 MSTORE CALLVALUE DUP1 ISZERO PUSH2 0xF JUMPI PUSH0 DUP1 REVERT JUMPDEST POP PUSH1 0x4 CALLDATASIZE LT PUSH2 0x29 JUMPI PUSH0 CALLDATALOAD PUSH1 0xE0 SHR DUP1 PUSH4 0x2283BFFD EQ PUSH2 0x2D JUMPI JUMPDEST PUSH0 DUP1 REVERT JUMPDEST PUSH2 0x35 PUSH2 0x37 JUMP JUMPDEST STOP JUMPDEST PUSH0 PUSH1 0x7 SWAP1 POP PUSH0 PUSH1 0x7 PUSH8 0xFFFFFFFFFFFFFFFF DUP2 GT ISZERO PUSH2 0x58 JUMPI PUSH2 0x57 PUSH2 0x182 JUMP JUMPDEST JUMPDEST PUSH1 0x40 MLOAD SWAP1 DUP1 DUP3 MSTORE DUP1 PUSH1 0x20 MUL PUSH1 0x20 ADD DUP3 ADD PUSH1 0x40 MSTORE DUP1 ISZERO PUSH2 0x86 JUMPI DUP2 PUSH1 0x20 ADD PUSH1 0x20 DUP3 MUL DUP1 CALLDATASIZE DUP4 CALLDATACOPY DUP1 DUP3 ADD SWAP2 POP POP SWAP1 POP JUMPDEST POP SWAP1 POP PUSH0 DUP3 PUSH8 0xFFFFFFFFFFFFFFFF DUP2 GT ISZERO PUSH2 0xA4 JUMPI PUSH2 0xA3 PUSH2 0x182 JUMP JUMPDEST JUMPDEST PUSH1 0x40 MLOAD SWAP1 DUP1 DUP3 MSTORE DUP1 PUSH1 0x1F ADD PUSH1 0x1F NOT AND PUSH1 0x20 ADD DUP3 ADD PUSH1 0x40 MSTORE DUP1 ISZERO PUSH2 0xD6 JUMPI DUP2 PUSH1 0x20 ADD PUSH1 0x1 DUP3 MUL DUP1 CALLDATASIZE DUP4 CALLDATACOPY DUP1 DUP3 ADD SWAP2 POP POP SWAP1 POP JUMPDEST POP SWAP1 POP PUSH1 0x7 DUP3 MLOAD EQ PUSH2 0xEB JUMPI PUSH2 0xEA PUSH2 0x1AF JUMP JUMPDEST JUMPDEST DUP3 DUP2 MLOAD EQ PUSH2 0xFC JUMPI PUSH2 0xFB PUSH2 0x1AF JUMP JUMPDEST JUMPDEST PUSH1 0x8 DUP3 PUSH1 0x6 DUP2 MLOAD DUP2 LT PUSH2 0x112 JUMPI PUSH2 0x111 PUSH2 0x1DC JUMP JUMPDEST JUMPDEST PUSH1 0x20 MUL PUSH1 0x20 ADD ADD DUP2 DUP2 MSTORE POP POP PUSH1 0x8 DUP3 PUSH1 0x6 DUP2 MLOAD DUP2 LT PUSH2 0x134 JUMPI PUSH2 0x133 PUSH2 0x1DC JUMP JUMPDEST JUMPDEST PUSH1 0x20 MUL PUSH1 0x20 ADD ADD MLOAD EQ PUSH2 0x14A JUMPI PUSH2 0x149 PUSH2 0x1AF JUMP JUMPDEST JUMPDEST PUSH0 PUSH1 0x40 MLOAD DUP1 PUSH1 0x60 ADD PUSH1 0x40 MSTORE DUP1 PUSH1 0x1 DUP2 MSTORE PUSH1 0x20 ADD PUSH1 0x2 DUP2 MSTORE PUSH1 0x20 ADD PUSH1 0x3 DUP2 MSTORE POP SWAP1 POP PUSH1 0x3 DUP1 EQ PUSH2 0x17C JUMPI PUSH2 0x17B PUSH2 0x1AF JUMP JUMPDEST JUMPDEST POP POP POP POP JUMP JUMPDEST PUSH32 0x4E487B7100000000000000000000000000000000000000000000000000000000 PUSH0 MSTORE PUSH1 0x41 PUSH1 0x4 MSTORE PUSH1 0x24 PUSH0 REVERT JUMPDEST PUSH32 0x4E487B7100000000000000000000000000000000000000000000000000000000 PUSH0 MSTORE PUSH1 0x1 PUSH1 0x4 MSTORE PUSH1 0x24 PUSH0 REVERT JUMPDEST PUSH32 0x4E487B7100000000000000000000000000000000000000000000000000000000 PUSH0 MSTORE PUSH1 0x32 PUSH1 0x4 MSTORE PUSH1 0x24 PUSH0 REVERT INVALID LOG2 PUSH5 0x6970667358 0x22 SLT KECCAK256 0xC7 EXP COINBASE 0x4C SWAP6 PUSH2 0xE3BD GASPRICE 0x2E PREVRANDAO SWAP15 0xC2 0xCF 0xD7 0xDF 0x21 0x26 MLOAD JUMPI 0x1F DELEGATECALL ISZERO EXP 0xEE CALLVALUE 0xDD PUSH16 0xE015A1A564736F6C6343000814003300 "
		},
		"gasEstimates": {
			"creation": {
				"codeDepositCost": "115000",
				"executionCost": "157",
				"totalCost": "115157"
			},
			"external": {
				"testArray()": "infinite"
			}
		},
		"methodIdentifiers": {
			"testArray()": "2283bffd"
		}
	},
	"abi": [
		{
			"inputs": [],
			"name": "testArray",
			"outputs": [],
			"stateMutability": "pure",
			"type": "function"
		}
	]
}