{
	"data": {
		"bytecode": {
			"linkReferences": {},
			"object": "608060405260025f556007600155348015610018575f80fd5b5061018a806100265f395ff3fe608060405234801561000f575f80fd5b5060043610610029575f3560e01c8063a2e620451461002d575b5f80fd5b61003561004c565b60405161004392919061008c565b60405180910390f35b5f806001545f5461005d91906100e0565b91506001545f5461006e9190610121565b90509091565b5f819050919050565b61008681610074565b82525050565b5f60408201905061009f5f83018561007d565b6100ac602083018461007d565b9392505050565b7f4e487b71000000000000000000000000000000000000000000000000000000005f52601160045260245ffd5b5f6100ea82610074565b91506100f583610074565b925082820261010381610074565b9150828204841483151761011a576101196100b3565b5b5092915050565b5f61012b82610074565b915061013683610074565b925082820190508082111561014e5761014d6100b3565b5b9291505056fea26469706673582212200a9d7b1487d7b6c32e397dd98df94017be6cac5a04e3a665eaa7283dca72669764736f6c63430008140033",
			"opcodes": "PUSH1 0x80 PUSH1 0x40 MSTORE PUSH1 0x2 PUSH0 SSTORE PUSH1 0x7 PUSH1 0x1 SSTORE CALLVALUE DUP1 ISZERO PUSH2 0x18 JUMPI PUSH0 DUP1 REVERT JUMPDEST POP PUSH2 0x18A DUP1 PUSH2 0x26 PUSH0 CODECOPY PUSH0 RETURN INVALID PUSH1 0x80 PUSH1 0x40 MSTORE CALLVALUE DUP1 ISZERO PUSH2 0xF JUMPI PUSH0 DUP1 REVERT JUMPDEST POP PUSH1 0x4 CALLDATASIZE LT PUSH2 0x29 JUMPI PUSH0 CALLDATALOAD PUSH1 0xE0 SHR DUP1 PUSH4 0xA2E62045 EQ PUSH2 0x2D JUMPI JUMPDEST PUSH0 DUP1 REVERT JUMPDEST PUSH2 0x35 PUSH2 0x4C JUMP JUMPDEST PUSH1 0x40 MLOAD PUSH2 0x43 SWAP3 SWAP2 SWAP1 PUSH2 0x8C JUMP JUMPDEST PUSH1 0x40 MLOAD DUP1 SWAP2 SUB SWAP1 RETURN JUMPDEST PUSH0 DUP1 PUSH1 0x1 SLOAD PUSH0 SLOAD PUSH2 0x5D SWAP2 SWAP1 PUSH2 0xE0 JUMP JUMPDEST SWAP2 POP PUSH1 0x1 SLOAD PUSH0 SLOAD PUSH2 0x6E SWAP2 SWAP1 PUSH2 0x121 JUMP JUMPDEST SWAP1 POP SWAP1 SWAP2 JUMP JUMPDEST PUSH0 DUP2 SWAP1 POP SWAP2 SWAP1 POP JUMP JUMPDEST PUSH2 0x86 DUP2 PUSH2 0x74 JUMP JUMPDEST DUP3 MSTORE POP POP JUMP JUMPDEST PUSH0 PUSH1 0x40 DUP3 ADD SWAP1 POP PUSH2 0x9F PUSH0 DUP4 ADD DUP6 PUSH2 0x7D JUMP JUMPDEST PUSH2 0xAC PUSH1 0x20 DUP4 ADD DUP5 PUSH2 0x7D JUMP JUMPDEST SWAP4 SWAP3 POP POP POP JUMP JUMPDEST PUSH32 0x4E487B7100000000000000000000000000000000000000000000000000000000 PUSH0 MSTORE PUSH1 0x11 PUSH1 0x4 MSTORE PUSH1 0x24 PUSH0 REVERT JUMPDEST PUSH0 PUSH2 0xEA DUP3 PUSH2 0x74 JUMP JUMPDEST SWAP2 POP PUSH2 0xF5 DUP4 PUSH2 0x74 JUMP JUMPDEST SWAP3 POP DUP3 DUP3 MUL PUSH2 0x103 DUP2 PUSH2 0x74 JUMP JUMPDEST SWAP2 POP DUP3 DUP3 DIV DUP5 EQ DUP4 ISZERO OR PUSH2 0x11A JUMPI PUSH2 0x119 PUSH2 0xB3 JUMP JUMPDEST JUMPDEST POP SWAP3 SWAP2 POP POP JUMP JUMPDEST PUSH0 PUSH2 0x12B DUP3 PUSH2 0x74 JUMP JUMPDEST SWAP2 POP PUSH2 0x136 DUP4 PUSH2 0x74 JUMP JUMPDEST SWAP3 POP DUP3 DUP3 ADD SWAP1 POP DUP1 DUP3 GT ISZERO PUSH2 0x14E JUMPI PUSH2 0x14D PUSH2 0xB3 JUMP JUMPDEST JUMPDEST SWAP3 SWAP2 POP POP JUMP INVALID LOG2 PUSH5 0x6970667358 0x22 SLT KECCAK256 EXP SWAP14 PUSH28 0x1487D7B6C32E397DD98DF94017BE6CAC5A04E3A665EAA7283DCA7266 SWAP8 PUSH5 0x736F6C6343 STOP ADDMOD EQ STOP CALLER "
		},
		"gasEstimates": {
			"creation": {
				"codeDepositCost": "78800",
				"executionCost": "44338",
				"totalCost": "123138"
			},
			"external": {
				"update()": "infinite"
			}
		},
		"methodIdentifiers": {
			"update()": "a2e62045"
		}
	},
	"abi": [
		{
			"inputs": [],
			"name": "update",
			"outputs": [
				{
					"internalType": "uint256",
					"name": "product",
					"type": "uint256"
				},
				{
					"internalType": "uint256",
					"name": "total",
					"type": "uint256"
				}
			],
			"stateMutability": "view",
			"type": "function"
		}
	]
}